:100000000C94A9030C946E3A0C949F3A0C94D03A39
:100010000C94013B0C94323B0C94633B0C94943B4A
:100020000C94C53B0C94D3030C94D3030C94D303CE
:100030000C94FF070C94D3030C94D3030C94E506A3
:100040000C94D3030C94D3030C94D3030C94D303D8
:100050000C94D3030C94D3030C94D3030C94C006D8
:100060000C94D3030C945E090C94D3030C94D30327
:100070000C94D3030C94D3030C94D3030C94D303A8
:100080000C94D3030C94D3030C94D3030C94D30398
:100090000C949F090C94D3030C94D3030C940E3945
:1000A0000C94D3030C94D3030C94D3030C94D30378
:1000B0000C94D3030C94D3030C94D3030C94D30368
:1000C0000C94D3030C94D3030C94D303436F6E208E
:1000D00061637475616C697A6163696F6E657320C1
:1000E0002E2E2E200054696D65205B59593A4D4DD6
:1000F0003A44443A64773A68683A6D6D3A73735D8E
:100100003A200037453030303430383532353334EA
:1001100043303600374530303034303835323533BF
:1001200034383041003745303030363038353234AD
:1001300044353930303030303000374530303034AD
:100140003038353234443539464600374530303062
:100150003530383532343234343030303000374591
:100160003030303530383532343135303030303071
:100170000037453030303530383532343134463060
:100180003030300037453030303630383532343961
:100190003434303030303030003745303030433058
:1001A000383532343934343030303030303030302B
:1001B000303030303030303030003745303030344F
:1001C0003038353234393434313800374530303016
:1001D00035303835323533344430303030003745FF
:1001E0003030303430383532353334443035003700
:1001F00045303030363038353235333534303030C4
:1002000030303000374530303037303835323533E4
:1002100035343030303030303030003745303030E9
:1002200036303835323533353030303030303000DC
:10023000374530303037303835323533353030307F
:1002400030303030303000374530303035303835B0
:100250003234333438303030300037453030303499
:10026000303835323433343831410037453030306E
:100270003430383532344534393045003745303044
:100280003035303835323445353430303030003761
:100290004530303036303835323445353430303012
:1002A0003030300037453030303430383532344536
:1002B000353430330037453030303530383532342E
:1002C0004534463030303000374530303034303807
:1002D00035323445344630380037453030303430EC
:1002E00038353235373532464300374530303036D1
:1002F0003038353235333433303030303030003709
:1003000045303030343038353235333433304600D0
:100310003745303030343038353235333434304589
:1003200000374530303134303835323442353930A9
:1003300030303030303030303030303030303030BD
:1003400030303030303030303030303030303030AD
:10035000300037453030303530383532343534358B
:10036000303030300037453030303430383532348A
:10037000353435314200374530303035303835325C
:100380003530344330303030003745303030343061
:100390003835323434343231460037453030303439
:1003A0003038353234383536303700374530303034
:1003B0003430383532353635324644003745303002
:1003C0003035303835323532353030303030003736
:1003D0004530303034303835323532353030330016
:1003E00037453030303430383532343134333231CF
:1003F00000374530303034303835323436353230ED
:1004000044003745303030343038353235323435C9
:1004100030450037453030303530383532353334BB
:1004200046303030300037453030303430383532B7
:10043000353334463033003745303030343038359A
:10044000323445343431330037453030303530388C
:100450003532343534343030303000374530303098
:10046000353038353235333434303030300037457C
:1004700030303034303835323434344331350003A1
:1004800001140125013A014B015E017101840199BA
:1004900001BA01CB01DE01EF0104021B0230024769
:1004A000025A026B027C028F02A402B502C802D972
:1004B00002EA02FF02100321035203650376038957
:1004C000039A03AB03BC03CF03E003F1030204135D
:1004D000042604370448045B046E0450524F47520C
:1004E000414D205245434549564544204F4B242415
:1004F00024242424242424242424240050524F4738
:1005000052414D205245434549564544204552529B
:100510004F522424242424242424242400535441EA
:1005200052542057495448204649524D574152454C
:10053000204F4B242424242424242424242424242D
:100540002424242424242424242424242400535430
:100550004152542057495448204649524D57415220
:1005600045204552524F5224242424242424242458
:100570002424242424242424242424242424005231
:1005800045414420424F4F544C4953542424242481
:1005900024242424242424242424242424004E45F4
:1005A000572050524F4752414D2052554E4E494EC2
:1005B00047242424242424242424242424240050D0
:1005C000524556494F55532050524F4752414D20A6
:1005D00052554E4E494E47242424242424242400DA
:1005E00052455354415254494E4724242424242430
:1005F00024242424242424242424242424242424BB
:10060000004649524D574152452044454C455445BA
:10061000442424242424242424242424242424247A
:1006200024004649524D57415245204E4F542044D4
:10063000454C45544544242424242424242424249F
:100640002424004649524D574152455F46494C4586
:100650005F464F525F574153504D4F54452323231C
:1006600023232300DB04FC041D054E057F059E05A6
:10067000BF05E005010622064306002124272A2D96
:100680003033002225282B2E313400202326292C1C
:100690002F320505050503030303010101040403CB
:1006A0000606060606060606010405010501030204
:1006B000020202020201020205050404030404010D
:1006C00003040707070102081010204080040810E7
:1006D00020400202040810204080010280204004D3
:1006E000200101020408102001408040800102081E
:1006F0000408800410040201000008090000000042
:1007000000000000000000000000000000000000E9
:1007100000000000000000000000000000000000D9
:1007200000000000000000000000007C3C3E5E2B4A
:100730003D3F2F5B5D3B2C2A225C0000D503830AE2
:10074000840AB90C0D39533CFE43D24818491E495E
:100750001F4911241FBECFEFD1E2DEBFCDBF13E092
:10076000A0E0B2E0E2E0FFE900E00BBF02C00790CA
:100770000D92AA36B107D9F71DE0AAE6B3E001C091
:100780001D92A831B107E1F717E0C2E5D7E004C038
:100790002297FE010E94844DCC33D107C9F70E94F5
:1007A000B9060C947F4F0C9400001092D70510925C
:1007B000D8051092DB051092DD0585E693E0909355
:1007C0006B0380936A0308952F923F924F925F923A
:1007D0006F927F928F929F92AF92BF92CF92DF9251
:1007E000EF92FF920F931F93DF93CF93CDB7DEB7B6
:1007F000C957D0400FB6F894DEBF0FBECDBF5C0125
:100800006B011982382E2B2C0E94C5162FE931E07E
:10081000A20EB31E92E0D5019C93E1E6FEEFAE0E70
:10082000BF1E42E0E42EF12CEC0EFD1E88E7D7013E
:100830001D928A95E9F78EE78A831B8281E08E8379
:10084000F501E45CFD4F118210822DE931E0A20E2A
:10085000B31ED5019C9323E63EEFA20EB31ED60134
:1008600018969C91860100591F4F923008F066C07F
:10087000F8018081825F8C8380E18D83913049F41F
:100880001F82188619861A861B861C868FEF8D8715
:100890001FC09923F1F4D60114968C9114978F837D
:1008A00015968C911597888716968C91169789873F
:1008B00017968C9117978A878C918B8711968C91BC
:1008C00011978C8712968C9112978D8713968C9125
:1008D0008E878FEF8F878EEF888B198A1A8AECE3C9
:1008E000F2E0AE0EBF1ED5011D921C92E4ECFDEFAE
:1008F000AE0EBF1E32E0E32EF12CEC0EFD1E832D5A
:10090000922DB601A70121E10E945B0D20E730E0A6
:10091000C20ED31ED6010D911C91E0E9FFEFCE0E61
:10092000DF1E0F5E1F4F832D922DB7010E942C11E9
:10093000E00EF11ED7018C9312E15BC0D8018C91BF
:100940008C5E8C8381E18D83D60114968C911497F3
:100950008F8315968C911597888716968C9116978C
:10096000898717968C9117978A878C918B87119618
:100970008C9111978C8712968C9112978D87139674
:100980008C918E878FEF8F878EEF888B22E730E0F8
:10099000C20ED31ED6018D91898B8D916D018A8BEC
:1009A0001B8A8C918C8B22E030E0C20ED31ED601C4
:1009B0008D916D018D8B8C9129E83FEFC20ED31E76
:1009C0008E8B1F8A188E11821082C501B601A70175
:1009D00027E10E945B0DD8010D911C91095E1F4F0C
:1009E000C501B7010E942C11E00EF11EF7018083B2
:1009F00018E122E0E22EF12CEC0EFD1E832D922D4B
:100A0000B601A7019E012F5F3F4F012F0E94740D79
:100A100000E090E7492E512C4C0C5D1C612E772490
:100A200087E0882E82E0982E8A0C9B1C11C0D4018E
:100A30008C91813021F488EF95E00E94CB0CF70176
:100A4000E00FF11D8081F40160810E94E0090F5FD9
:100A5000402F50E02981D2018D919C91820F911DF0
:100A6000860D971D4817590710F3832D922D0E946C
:100A7000CE16EFE9F1E0AE0EBF1ED5018C93EAE889
:100A8000F0E0CE0EDF1E20EC30E0A20EB31ED5014A
:100A90009D91F60191939D9191939D9191939D913B
:100AA0005D019193DF01F50190819C93C758DF4F61
:100AB0000FB6F894DEBF0FBECDBFCF91DF911F916F
:100AC0000F91FF90EF90DF90CF90BF90AF909F90ED
:100AD0008F907F906F905F904F903F902F900895F0
:100AE000CF93DF93EC01CA5FDD4F83E08993688386
:100AF000C750D240662321F488EF95E00E94BA0CDB
:100B0000C85FDD4F19821882E496199219921882F3
:100B1000CE53D2401BA2CB5FDE4F18822297199290
:100B200082E88883A9961882229680E28883C75437
:100B3000D040199297E0999380ED89931992199278
:100B400088EC8883C75BDF4F1882289784E088830E
:100B5000C25BDE4F999383E08993899391E09883F8
:100B60006B9719921882C95CD04082E08883C65383
:100B7000DF4F9883C95CD040899389938883CF598C
:100B8000D140CE010E949916CE010E94C516DF9178
:100B9000CF9108958AE693E00E94B7118823D9F097
:100BA00087EF95E06CEC70E00E94240B8AE693E0FE
:100BB0000E94693780916F05882369F08AE693E087
:100BC0000E94E421882339F48AE693E00E94B71159
:100BD000882381F3EBCF089587EF95E060E072E022
:100BE0000E94740B0E94CA0568EE73E080E090E0FA
:100BF0000E9422070895EF92FF920F931F930AE637
:100C000013E0C8010E943C20C8010E94CF1F88EF5A
:100C1000E82E85E0F82E095F1F4F40915703509151
:100C20005803C701B8010E94EB0B045010404091DB
:100C3000570350915803485F5F4FC701B8010E94A6
:100C4000EB0BE0915703F0915803108A1F910F911D
:100C5000FF90EF9008958AE693E00E94093968EBCF
:100C60007BE080E090E00E9422078AE693E06091BA
:100C70005B030E94362180910705882329F487EFC2
:100C800095E06BE072E004C087EF95E06AE172E006
:100C90000E94740B8AE693E069E573E00E94F11DFF
:100CA00080910705882329F487EF95E067E372E0D8
:100CB00004C087EF95E064E472E00E94740B8AE65A
:100CC00093E060E00E94ED2080910705882329F4DD
:100CD00087EF95E06FE572E004C087EF95E060E78D
:100CE00072E00E94740B0E94FB05609157037091A3
:100CF000580388EF95E00E942D0D60915703709185
:100D000058038AE693E00E94031C8091070588231C
:100D100029F487EF95E06EE872E004C087EF95E074
:100D200061EA72E00E94740B8AE693E00E94501F11
:100D300080910705882329F487EF95E065EC72E040
:100D400004C087EF95E067ED72E00E94740B089590
:100D500088EF95E062EF72E00E94030D87EF95E067
:100D60000E94A00B0E942B068AE693E00E94692B4A
:100D700008950E946A070E94A8060E94EC05FDCF14
:100D80001F920F920FB60F9211248F939F93AF93E0
:100D9000BF9380918C0A90918D0AA0918E0AB09198
:100DA0008F0A0196A11DB11D80938C0A90938D0A24
:100DB000A0938E0AB0938F0ABF91AF919F918F91AC
:100DC0000F900FBE0F901F9018951F920F920FB6A5
:100DD0000F9211248F939F93AF93BF938091900AAA
:100DE0009091910AA091920AB091930A0196A11D47
:100DF000B11D8093900A9093910AA093920AB093A8
:100E0000930ABF91AF919F918F910F900FBE0F905A
:100E10001F90189560918C0A70918D0A80918E0AAE
:100E200090918F0A27E0660F771F881F991F2A95D8
:100E3000D1F723E730E040E050E00E94314DCA0195
:100E4000B9010895AF92BF92CF92DF92EF92FF92D5
:100E50000F931F935B016C0160918C0A70918D0A56
:100E600080918E0A90918F0A47E0660F771F881F46
:100E7000991F4A95D1F723E730E040E050E00E9407
:100E8000314D79018A0160918C0A70918D0A8091AF
:100E90008E0A90918F0A37E0660F771F881F991F7F
:100EA0003A95D1F723E730E040E050E00E94314D21
:100EB0002E193F09400B510B2A153B054C055D05CA
:100EC00010F31F910F91FF90EF90DF90CF90BF90A4
:100ED000AF900895789484B7877F84BF10928C0A6E
:100EE00010928D0A10928E0A10928F0A84B5826039
:100EF00084BD84B5816084BD85B5826085BD85B5BE
:100F0000816085BDEEE6F0E0808181608083E1E86C
:100F1000F0E0808182608083808181608083E0E86E
:100F2000F0E0808181608083E1EBF0E0808184608B
:100F30008083E1E9F0E0808184608083E0EBF0E091
:100F4000808181608083E0E9F0E08081816080833E
:100F5000E4E6F0E080818E7F8083ECE7F0E0808142
:100F60008F778083808180648083EAE7F0E08081EE
:100F700084608083808182608083808180688083B8
:100F80001092C1001092C90008959091EE05982B1F
:100F90009093EE0580FF32C0809164008E7F809335
:100FA000640080917C008F7780937C0080917C002E
:100FB000806480937C0080917A00846080937A00C2
:100FC00080917A00826080937A0080917A008068B4
:100FD00080937A00809164008F7780936400809181
:100FE00064008B7F80936400809164008D7F809388
:100FF0006400809165008E7F8093650008951F9244
:101000000F920FB60F920BB60F9211242F933F93AE
:101010004F935F936F937F938F939F93AF93BF9300
:10102000EF93FF93F89481E080935C03E0E6F0E0B7
:1010300080818068808380818F7B808383E060E013
:101040000E9454087894FF91EF91BF91AF919F91C6
:101050008F917F916F915F914F913F912F910F9061
:101060000BBE0F900FBE0F901F901895282F30E0E9
:10107000C9018B53994FFC0194912E56394FF901B8
:101080008491882381F0E82FF0E0E658F94FE4914D
:10109000F0E0662329F48081909589238083089568
:1010A0008081892B80830895482F50E0CA018850A1
:1010B000994FFC012491CA018B53994FFC019491E3
:1010C0004E56594FFA0134913323C1F1222331F1A5
:1010D000233021F4809180008F7705C0243031F4D3
:1010E000809180008F7D8093800018C0213019F49A
:1010F00084B58F7704C0223021F484B58F7D84BD00
:101100000DC0263021F48091B0008F7705C02730C4
:1011100029F48091B0008F7D8093B000E32FF0E040
:10112000EE57F94FE491F0E0662329F48081909521
:101130008923808308958081892B80830895482F97
:1011400050E0CA018850994FFC012491CA018B5389
:10115000994FFC0194914E56594FFA013491332323
:1011600019F420E030E035C0222331F1233021F49E
:10117000809180008F7705C0243031F48091800009
:101180008F7D8093800018C0213019F484B58F774B
:1011900004C0223021F484B58F7D84BD0DC026307B
:1011A00021F48091B0008F7705C0273029F4809119
:1011B000B0008F7D8093B000E32FF0E0E657F94F49
:1011C000E491F0E0808120E030E0892311F021E01B
:1011D00030E0C9010895882389F48091EF0590914A
:1011E000F00580509E4F2091F1053091F205821B51
:1011F000930B60E072E00E941E4D08958091F3050C
:101200009091F40580589F4F2091F5053091F60597
:10121000821B930B60E870E00E941E4D08958823A6
:10122000D1F44091F1055091F2058091EF05909134
:10123000F0058417950751F1FA01EC5EF44F208117
:10124000CA01019660E072E00E941E4D9093F20583
:101250008093F10519C04091F5055091F6058091F4
:10126000F3059091F4058417950781F0FA01EC5687
:10127000F54F2081CA01019660E870E00E941E4D82
:101280009093F6058093F50530E002C02FEF3FEF15
:10129000C9010895882349F41092F2051092F105CE
:1012A0001092F0051092EF0508951092F605109235
:1012B000F5051092F4051092F30508951F920F9210
:1012C0000FB60F920BB60F9211242F933F934F93AB
:1012D0005F936F937F938F939F93AF93BF93EF939E
:1012E000FF934091C600E091EF05F091F005CF012A
:1012F000019660E072E00E941E4D9C018091F10514
:101300009091F2052817390739F0EC5EF44F4083CD
:101310003093F0052093EF05FF91EF91BF91AF91CE
:101320009F918F917F916F915F914F913F912F91FD
:101330000F900BBE0F900FBE0F901F9018951F922D
:101340000F920FB60F920BB60F9211242F933F936B
:101350004F935F936F937F938F939F93AF93BF93BD
:10136000EF93FF934091CE00E091F305F091F405E7
:10137000CF01019660E870E00E941E4D9C018091B3
:10138000F5059091F6052817390739F0EC56F54F19
:1013900040833093F4052093F305FF91EF91BF91C3
:1013A000AF919F918F917F916F915F914F913F91FD
:1013B0002F910F900BBE0F900FBE0F901F9018959E
:1013C000982F662339F48091C00085FFFCCF90935D
:1013D000C60008958091C80085FFFCCF9093CE0091
:1013E0000895FC0110C03196662339F48091C00045
:1013F00085FFFCCF9093C60006C08091C80085FF92
:10140000FCCF9093CE009081992369F70895EF92D5
:10141000FF920F931F937B018C014423C1F588E059
:101420000E94C507C801B70122E030E040E050E06B
:101430000E94534D26573D4E414F5F4FCA01B9019F
:10144000A80197010E94534DC901DA010197A10932
:10145000B109292F3A2F4B2F552747FD5A95019651
:10146000A11DB11D2093C50081508093C4008091BF
:10147000C10080618093C1008091C1008860809329
:10148000C1008091C10080688093C10037C080E1B5
:101490000E94C507C801B70122E030E040E050E0FB
:1014A0000E94534D26573D4E414F5F4FCA01B9012F
:1014B000A80197010E94534DC901DA010197A109C2
:1014C000B109292F3A2F4B2F552747FD5A950196E1
:1014D000A11DB11D2093CD0081508093CC0080913F
:1014E000C90080618093C9008091C90088608093A1
:1014F000C9008091C90080688093C9001F910F9135
:10150000FF90EF90089508951092F7050895FF92C7
:101510000F931F938C01F62E60E072EC81E090E057
:10152000F80140810E94070A87E161E00E945408A7
:101530008BE060E00E9454088F2DF80160810E94CA
:10154000E00961E070E080E090E00E9422078BE01B
:1015500061E00E9454081F910F91FF9008950F932E
:101560001F93CF93DF93EC01162F072F60E072ECEF
:1015700081E090E048810E94070A212F302FC901A5
:101580008C01F8010F5F1F4F6491662321F0CE019B
:101590000E94870AF6CF60E070E080E090E0DF9183
:1015A000CF911F910F910895FF920F931F938C017C
:1015B000F62E60E072EC81E090E0F80140810E943C
:1015C000070A87E161E00E9454088BE060E00E9416
:1015D00054088F2DF80160810E94E00961E070E0FD
:1015E00080E090E00E9422078BE061E00E945408B6
:1015F0001F910F91FF9008950F931F938C0160E04E
:1016000072EC81E090E0F80140810E94070A87E1D6
:1016100061E00E9454088BE060E00E945408C80119
:101620006DE00E94D40AC8016AE00E94D40A61E019
:1016300070E080E090E00E9422078BE061E00E9471
:1016400054081F910F910895CF92DF92EF92FF926D
:101650000F931F938C017B0160E072EC81E090E0BE
:10166000F80140810E94070AC801B7010E94AF0A31
:10167000F62EE72ED82EC92EC8010E94FC0A6F2D27
:101680007E2D8D2D9C2D1F910F91FF90EF90DF905F
:10169000CF900895EF92FF920F931F938C017B01DF
:1016A00060E072EC81E090E0F80140810E94070A5E
:1016B00087E161E00E9454088BE060E00E945408DA
:1016C000C701F80160810E94F10961E070E080E0EB
:1016D00090E00E9422078BE061E00E9454081F9175
:1016E0000F91FF90EF900895EF92FF920F931F9349
:1016F0008C017B0160E072EC81E090E0F8014081B8
:101700000E94070A87E161E00E9454088BE060E0D4
:101710000E945408C801B7010E944A0BC8010E94E8
:10172000FC0A61E070E080E090E00E9422078BE01C
:1017300061E00E9454081F910F91FF90EF9008956F
:10174000FC0160E072EC81E090E040810E94070AB9
:1017500087E161E00E94360887E161E00E94540859
:101760008BE061E00E9436088BE060E00E94540844
:1017700008950F931F93CF93DF938B01BA01DA0182
:1017800040E050E0C22FD0E019C0F801E40FF51F8F
:101790008081982F92959F708F709A3010F4905D91
:1017A00001C0995C9C938A3010F4805D01C0895C13
:1017B00011968C9311974F5F5F4F12964C175D07F0
:1017C00024F3CC0FDD1FC60FD71F1882DF91CF91F6
:1017D0001F910F91089528E00E94B90B0895FB0115
:1017E0009081892F80538A3038F4292F332727FDA1
:1017F0003095205330400DC0892F8154863018F029
:1018000020E030E007C0292F332727FD30952753EC
:10181000304031966081862F80538A3030F47727AC
:1018200067FD7095605370400CC0862F81548630E0
:1018300018F060E070E005C0772767FD709567538A
:10184000704094E0220F331F9A95E1F7862F820FA4
:1018500008956833A1F1693380F4643341F165334D
:1018600038F4623301F1633300F56133D1F417C00A
:10187000663309F1673308F51CC0633441F1643401
:1018800038F4613401F1623400F5693351F419C060
:10189000653409F16534E8F0663419F41EC081E05E
:1018A0001DC080E01BC082E019C083E017C084E047
:1018B00015C085E013C086E011C087E00FC088E046
:1018C0000DC089E00BC08AE009C08BE007C08CE046
:1018D00005C08DE003C08EE001C08FE04733A1F169
:1018E000483380F4433341F1443338F44133F1F069
:1018F000423300F54033E1F51BC0453309F146336F
:1019000008F51CC0423441F1433438F4493301F145
:101910004933E0F0413461F51DC0443409F14434E9
:10192000E8F04534F9F04634F9F0089591E01DC02F
:1019300090E01BC092E019C093E017C094E015C07E
:1019400095E013C096E011C097E00FC098E00DC07D
:1019500099E00BC09AE009C09BE007C09CE005C07D
:101960009DE003C09EE001C09FE08295807F890FCB
:101970000895089587E161E00E9436088BE061E0F8
:101980000E94360887E161E00E9454088BE061E024
:101990000E945408089587E161E00E94360884E2BD
:1019A00061E00E94360885E261E00E94360887E126
:1019B00061E00E94540884E261E00E94540885E2DC
:1019C00061E00E94540808950F931F93162F042F6F
:1019D00087E161E00E94360884E261E00E943608F7
:1019E00085E261E00E94360887E161E00E945408C8
:1019F00084E2612F0E94540885E2602F0E945408FF
:101A00001F910F9108950F931F93CF93DF93162F7C
:101A1000072FCBE6D0E0CE0160E00E94714F219607
:101A2000C337D105C1F7812F902F9C018901CBE6E7
:101A3000D0E0CE01F80160810E94714FF8018081F1
:101A4000882331F00F5F1F4F2196C337D10589F7E7
:101A5000DF91CF911F910F9108950F931F93CF9313
:101A6000DF93162F072FC3E9D0E0CE0160E00E947C
:101A7000714F2196C33AD105C1F7812F902F9C0158
:101A80008901C3E9D0E0CE01F80160810E94714F65
:101A9000F8018081882331F00F5F1F4F2196C33AF0
:101AA000D10589F7DF91CF911F910F910895CB0157
:101AB0000E94694F0895CF93DF93DA01FB01A20FD3
:101AC000B11D20E030E0EB01C059DF4F04C0838539
:101AD0008D932F5F3F4F3196888199812817390761
:101AE000B0F3DF91CF9108953F924F925F926F9242
:101AF0007F928F929F92AF92BF92CF92DF92EF929E
:101B0000FF920F931F93DF93CF9300D000D0CDB7F8
:101B1000DEB76B014A017901AA24A39410E020E703
:101B200030E0C20ED31E41E3442E3DE7732E23E383
:101B3000322E9EE5692E8DE5582E30C1D401A60FB8
:101B4000B71F8C91813111F090E04AC04C92F7019F
:101B500080818F5F80838C917C926F5F7F4F940137
:101B6000260F371F3C832B8361507040FB01329658
:101B7000FA83E98320C0EB81FC81B18041834981F4
:101B80005A814F5F5F4F3296FC83EB8329813A8104
:101B90002E5F3F4F3A832983F70180819801280FF8
:101BA000311DC901F60120813181820F931F481731
:101BB0005907A8F48B2DEB81FC8140818083F701CC
:101BC00080819801280F311DC901F60120813181E2
:101BD000820F931F29813A812817390760F291E01B
:101BE0008C91833109F04DC0992309F04AC03C9291
:101BF000F70180818F5F80838C917C926F5F7F4F34
:101C00009401260F371F3C832B8361507040FB01EA
:101C10003296FA83E98320C0EB81FC81B180418355
:101C200049815A814F5F5F4F3296FC83EB83298154
:101C30003A812E5F3F4F3A832983F70180819801D3
:101C4000280F311DC901F60120813181820F931FB8
:101C500048175907A8F48B2DEB81FC8140818083C4
:101C6000F70180819801280F311DC901F6012081FB
:101C70003181820F931F29813A812817390760F239
:101C800091E08C918E3709F04DC0992309F04AC03C
:101C90006C92F70180818F5F80838C917C926F5F63
:101CA0007F4F9401260F371F3C832B836150704078
:101CB000FB013296FA83E98320C0EB81FC81B1807D
:101CC000418349815A814F5F5F4F3296FC83EB839A
:101CD00029813A812E5F3F4F3A832983F701808122
:101CE0009801280F311DC901F60120813181820F31
:101CF000931F48175907A8F48B2DEB81FC81408175
:101D00008083F70180819801280F311DC901F601F8
:101D100020813181820F931F29813A812817390749
:101D200060F291E02C912D37C1F59923B1F55C92C9
:101D3000F70180818F5F80838C912C936F5F7F4F41
:101D4000F401E60FF71F6F5F7F4F17C0B18041832B
:101D5000AB014F5F5F4F32966E5F7F4FD7018C9123
:101D60009801280F311DC901D6012D913C91820F98
:101D7000931F4817590788F48B2D40818083D70122
:101D80008C919801280F311DC901D6012D913C91EC
:101D9000820F931F68177907C8F2A3946A2D70E029
:101DA000F70180819801280F311DC901D6012D91BD
:101DB0003C91820F931F6817790708F4BFCE0F90EC
:101DC0000F900F900F90CF91DF911F910F91FF9087
:101DD000EF90DF90CF90BF90AF909F908F907F90CB
:101DE0006F905F904F903F900895DF92EF92FF9237
:101DF0000F931F93CF93DF93890180E090E0A3E1DD
:101E0000DA2EFEE7EF2EE1E1FE2E37C02F5F3F4FC7
:101E10009C919D3731F01196319624173507B0F318
:101E20002DC02417350750F5E9012196E60FF71F5D
:101E30008181833361F0843318F4813369F405C000
:101E40008D3549F08E3541F404C0FC9205C0DC921A
:101E500003C0EC9201C09C9341505040F901E00F47
:101E6000F11FE60FF71F02C0818180832F5F3F4F74
:101E70003196CE0124173507B8F39C012417350796
:101E800038F4F901E00FF11FDB01AE0FBF1FC0CF27
:101E9000DF91CF911F910F91FF90EF90DF90089508
:101EA000EF92FF920F931F93CF93DF938C01EB017F
:101EB0007A01FC01E45CFD4F2D5F3F4F31832083AD
:101EC00023503040A0E0B0E0AF010BC0FE01E60FB0
:101ED000F71F8081A80FB11D6F5F7F4FFA017183DB
:101EE0006083FA01608171816E157F0578F3AF3FE1
:101EF000B10521F0AF3F11F081E008C005561E4F3B
:101F0000C20FD31F8C81F801808380E0DF91CF91D5
:101F10001F910F91FF90EF9008950F931F93CF9310
:101F2000DF93EC01C85FDD4F18811351C152D140DE
:101F30008881C75ED0408150682F70E027E230E092
:101F4000629FA001639F500D729F500D1124DE010E
:101F5000A40FB51FC65FDD4F899194968C9394971B
:101F6000899195968C9395978881CC50D24096967E
:101F70008C9396976F5F7F4F629FF001639FF00D88
:101F8000729FF00D112461507040EC0FFD1FC35F74
:101F9000DD4F89918083899198968C939897899148
:101FA00099968C93999789919A968C939A978991FF
:101FB0009B968C939B9789919C968C939C978881F8
:101FC000C351D2409D968C93FA01BE96EC0FFD1F33
:101FD00080E090E01192019684319105D9F7CA5FB3
:101FE000DD4F8881C650D240813009F041C087E280
:101FF00090E0689FD001699FB00D789FB00D1124CB
:10200000AC0FBD1FA65BBF4FCC5EDD4F8881C451B6
:10201000D2408C93AA54B040AE01485F5D4FFA01A4
:10202000808191810D9708F472C0FE01E45CFD4F40
:10203000118210829F01BA01AD010FC0FA01EA0FAF
:10204000FB1FAC0FBD1FAB5EBD4F8C9186A7F90186
:1020500080819181019691838083F901A081B18172
:10206000FB01808191810C97A817B90738F34FC005
:102070008250843008F04BC0FE01E45CFD4F1182B9
:102080001082AF01012F10E087E290E0689F90017D
:10209000699F300D789F300D11242C0F3D1F0FC00C
:1020A000F901EA0FFB1FAC0FBD1FAC5EBD4F8C9159
:1020B00086A7FA0180819181019691838083FA013C
:1020C000A081B181A017B10758F387E290E0689F23
:1020D000D001699FB00D789FB00D1124AC0FBD1FCA
:1020E000AE5BBF4FFE01E00FF11FEB5EFD4F819134
:1020F0008D9381918D9381918D9381918D93819118
:102100008D9381918D9381918D9380818C93DF91BB
:10211000CF911F910F910895CF92DF92EF92FF928E
:102120000F931F93CF93DF93EC016B017A01B901F9
:10213000FC01E45CFD4F0D5F1F4F118300830350D2
:102140001040A0E0B0E09F010BC0F601E40FF51FC6
:102150008081A80FB11D4F5F5F4FF901518340830C
:10216000F901408151814617570778F3AF3FB10518
:1021700019F0AF3F09F064C0F601E00FF11F95813F
:10218000D70115968C911597981709F059C096812B
:1021900016968C91981709F053C09B01201B310BA8
:1021A0002930310529F48781882309F44CC048C0BF
:1021B0009781992351F0CA5FDD4F8881C650D24084
:1021C00083508330E8F59034D9F5FE01E45CFD4F8F
:1021D00011821082BF012950304012C0FE01E40F6D
:1021E000F51FE65FFD4FD601A40FB51FA00FB11F6D
:1021F00018968C9180834F5F5F4FFB015183408322
:10220000DB014D915C914217530740F3C85FDD4FEE
:1022100039832883C850D240F70185818E3491F4E8
:102220008681843479F42230310530F0FE01E951A1
:10223000FF4F80818F5F8083CE010E948D0F02C08F
:1022400081E001C080E0DF91CF911F910F91FF905D
:10225000EF90DF90CF900895DB0112968C9112974A
:10226000482F50E04E5F5F4F90E023E030E007C022
:10227000FD01E20FF31F8081980F2F5F3F4F421740
:102280005307B4F7892F80950895AF92BF92CF92EC
:10229000DF92EF92FF920F931F93CF93DF938B0107
:1022A000FA0179018281682F70E06C5F7F4F918124
:1022B00080E0680F791F8081D8018C93EA0120E0CB
:1022C00030E041E050E0ADE7AA2EF3E3BF2EEDE5AC
:1022D000CE2E9EE5D92E91E38981813131F0833173
:1022E00021F08D3711F08E3731F5D801A40FB51FCD
:1022F000FD01E20FF31FA0822F5F3F4F89818331E1
:1023000071F0843118F48131E1F405C08D3759F052
:102310008E37B9F40CC0A20FB31F9C9312C0A20F4A
:10232000B31FBC920EC0A20FB31FCC920AC0A20F63
:10233000B31FDC9206C0F801E40FF51FE20FF31F94
:1023400080834F5F5F4F2196461757072CF2260F69
:10235000371FF70131832083DF91CF911F910F91B8
:10236000FF90EF90DF90CF90BF90AF900895FC0169
:10237000E95FFD4F80810E94EB080895CF93DF93C2
:10238000EC01FB0101900020E9F73197E61BE6958F
:10239000DC01A45CBD4F83E090E011969C938E938A
:1023A00090E04E2F50E00CC0FE01E20FF31FE15C05
:1023B000FD4F8081980F2F5F3F4F11963C932E93D6
:1023C0002D913C9111972417350770F3892F809533
:1023D000C40FD51FC25CDD4F8883DF91CF91089574
:1023E000AF92BF92CF92DF92FF920F931F93CF9342
:1023F000DF936C01FF2460E070E08C01045C1D4FF2
:10240000D8016D937C93EB012C96CC0FDD1FCC0D86
:10241000DD1D23C05F010894A11CB11CA881B981F6
:10242000AA57BF4F3D96EE0FFF1FEC0DFD1D01900B
:10243000F081E02DEA57FF4F2D913D914D915C9138
:1024400080819181A281B38182179307A407B50788
:1024500054F4F394F801B182A082D801ED91FC917B
:10246000E430F105B8F2B4E0FB1621F4F62E65E095
:1024700070E002C0F62EF3946F5F7F4F65307105F8
:1024800008F4BECF0F2D10E0045F1F4F000F111F87
:102490000C0D1D1DF801808191810E94514ED801C3
:1024A0001D921C928F2DDF91CF911F910F91FF9064
:1024B000DF90CF90BF90AF900895AF92BF92CF9230
:1024C000DF92FF920F931F93CF93DF936C01FF2452
:1024D00060E070E08C01045C1D4FD8016D937C932B
:1024E000EB012C96CC0FDD1FCC0DDD1D23C05F0151
:1024F0000894A11CB11CA881B981AA57BF4F3D9671
:10250000EE0FFF1FEC0DFD1D0190F081E02DEA574D
:10251000FF4F2D913D914D915C9180819181A281E0
:10252000B381281739074A075B0754F4F394F8017D
:10253000B182A082D801ED91FC91E430F105B8F2AE
:10254000B4E0FB1621F4F62E65E070E002C0F62E32
:10255000F3946F5F7F4F6530710508F4BECF0F2D88
:1025600010E0045F1F4F000F111F0C0D1D1DF8011F
:10257000808191810E94514ED8011D921C928F2D15
:10258000DF91CF911F910F91FF90DF90CF90BF907F
:10259000AF9008956F927F929F92AF92BF92CF9229
:1025A000DF92EF92FF920F931F93CF93DF935C0123
:1025B0006B0128E032E0A20EB31ED5018D919C91F3
:1025C000C8EFDDEFAC0EBD1E0C9708F4F6C2F501A6
:1025D00083A18F5F83A3E45CFD4F11821082DF0132
:1025E0000FC0F9013C96EE0FFF1FEA0DFB1D808125
:1025F0009181892B59F02F5F3F4F11963C932E9379
:102600002D913C9111972530310558F3822FD5013A
:1026100093962C912630F8F0CCE9D1E0AC0EBD1E9B
:10262000F501908144E65EEFA40EB51E913029F0CD
:10263000913038F0923079F408C0C5010E945D12E3
:102640000AC0C5010E94F01106C02150D501939621
:102650002C9382E0B5C2682E772481E090E06FE889
:1026600070E00E94884DEC01ACE0EA2EF12CE60C03
:10267000F71CEE0CFF1CEA0CFB1CF7019183808316
:10268000009709F49AC22EE332E0A20EB31ED501E0
:102690009C90E2ECFDEFAE0EBF1EF1E09F1609F438
:1026A0007EC09F1648F022E0921609F41CC133E068
:1026B000931609F084C2B7C1CB57DF4F1882D701F8
:1026C0000D911C910E940A070A571F4FE801688369
:1026D00079838A839B83D701ED91FC911197EE5703
:1026E000FF4FE60188818083ED91FC911197ED57B2
:1026F000FF4F89818083ED91FC911197EC57FF4F3B
:102700008A818083ED91FC911197E758FF4F8B816F
:102710008083ED91FC91E758FF4F8081E957F040AD
:102720008150823018F481E0808701C01086F50165
:10273000E85FFD4F80819181049720F484E090E070
:1027400091838083D3011C96AA0FBB1FAA0DBB1DCA
:10275000ED91FC911197E059FF4F28E032E0A20E75
:10276000B31EE50188819981049791838083F601E6
:1027700020E030E006C0C20FD31F83818C872F5F1B
:102780003F4FCD91DC9111973196C059DF4F888131
:102790009981C057D0402817390768F310C2CB572A
:1027A000DF4F9882F701008111810E940A070A57C2
:1027B0001F4FD8016D937D938D939C931397E701E1
:1027C000E881F981E258FF4FD6018C918083E8813E
:1027D000F981E158FF4F11968C9111978083E88120
:1027E000F981E058FF4F12968C9112978083E8810F
:1027F000F981EF57FF4F13968C9113978083E881EF
:10280000F981E658FF4F14968C9114978083E881E4
:10281000F981E558FF4F15968C9115978083E881D3
:10282000F981E458FF4F16968C9116978083E881C2
:10283000F981E358FF4F17968C9117978083E881B1
:10284000F981EC57FF4F18968C9118978083E88197
:10285000F981E758FF4F19968C918083E881F981BF
:10286000E758FF4F8081E957F0408150823010F4E3
:10287000908601C01086F501E85FFD4F808191814F
:102880000A9720F48AE090E091838083D3011C961C
:10289000AA0FBB1FAA0DBB1DED91FC911197E0592A
:1028A000FF4FC8E0D2E0AC0EBD1EE50188819981E2
:1028B0000A9791838083F60120E030E006C0C20FC2
:1028C000D31F81858C872F5F3F4FCD91DC9111976E
:1028D0003196C059DF4F88819981C057D040281761
:1028E000390768F36CC10E940A07CA57DF4F688333
:1028F00079838A839B83D701ED91FC911197E258EC
:10290000FF4FE60188818083ED91FC911197E1589A
:10291000FF4F89818083ED91FC911197E058FF4F23
:102920008A818083ED91FC911197EF57FF4F8B8146
:102930008083ED91FC911197E658FF4F8C81808345
:10294000ED91FC911197E558FF4F8D818083ED91BA
:10295000FC911197E458FF4F8E818083ED91FC919B
:102960001197E358FF4F8F818083ED91FC91119770
:10297000EE57FF4F88858083ED91FC911197ED57BD
:10298000FF4F89858083ED91FC911197E758FF4FA8
:102990008A858083ED91FC91E758FF4F8081E9574C
:1029A000F0408F70823019F481E0808701C010867A
:1029B000F501E85FFD4F808191810B9720F48BE05A
:1029C00090E091838083D3011C96AA0FBB1FAA0DB0
:1029D000BB1DED91FC911197E059FF4F28E032E0CB
:1029E000A20EB31EE501888199810B9791838083A4
:1029F000E60120E030E006C0E20FF31F8A858487FD
:102A00002F5F3F4FED91FC9111972196E059FF4FB9
:102A100080819181E057F0402817390768F3EC571F
:102A2000FF4F1082CCC00E940A07CA57DF4F68834D
:102A300079838A839B83D701ED91FC911197E258AA
:102A4000FF4FE60188818083ED91FC911197E15859
:102A5000FF4F89818083ED91FC911197E058FF4FE2
:102A60008A818083ED91FC911197EF57FF4F8B8105
:102A70008083ED91FC911197E658FF4F8C81808304
:102A8000ED91FC911197E558FF4F8D818083ED9179
:102A9000FC911197E458FF4F8E818083ED91FC915A
:102AA0001197E358FF4F8F818083ED91FC9111972F
:102AB000EE57FF4F88858083ED91FC911197ED577C
:102AC000FF4F89858083ED91FC91119782E080878B
:102AD000ED91FC911197EE58FF4F8A858083ED911F
:102AE000FC911197ED58FF4F8B858083ED91FC9100
:102AF0001197EC58FF4F8C858083ED91FC911197D5
:102B0000EB58FF4F8D858083ED91FC911197EA582A
:102B1000FF4F8E858083ED91FC911197E958FF4F0F
:102B20008F858083ED91FC911197E758FF4F88893D
:102B30008083ED91FC91E758FF4F8081E957F04089
:102B40008F70823011F481E08087F501E85FFD4FDE
:102B500080819181419720F481E190E0918380838D
:102B6000D3011C96AA0FBB1FAA0DBB1DED91FC91B2
:102B70001197E059FF4F28E032E0A20EB31EE501A5
:102B800088819981419791838083F60120E030E02C
:102B900006C0C20FD31F80898C872F5F3F4FCD9116
:102BA000DC9111973196C059DF4F88819981C057C8
:102BB000D0402817390768F302C081E001C080E0E7
:102BC000DF91CF911F910F91FF90EF90DF90CF9009
:102BD000BF90AF909F907F906F900895AF92BF92FB
:102BE000CF92DF92EF92FF920F931F93DF93CF93D9
:102BF000CDB7DEB7C857D0400FB6F894DEBF0FBED2
:102C0000CDBF8C016B015A0179010E94F63B8639D8
:102C1000910514F48FEF73C0B7016D5F7F4FF8011A
:102C2000E45CFD4F7183608340E050E0DF010BC046
:102C3000F601E20FF31F8081480F511D2F5F3F4FB8
:102C400011963C932E932D913C9111972A153B059B
:102C500078F34F3F510519F04F3F09F062C0F8017A
:102C6000E85FFD4F1182108297012C5F3F4FD60124
:102C7000AE0DBF1D7E010894E11CF11CA501415061
:102C800050405F010EC013968C911397F70181930A
:102C90007F01F501808191810196918380832F5F6F
:102CA0003F4F11962417350770F36C0D7D1DFB0106
:102CB0008081813871F0823818F48038D1F405C0F1
:102CC000803961F08139A9F40DC0025C1D4F81E0AB
:102CD0000CC0025C1D4FF801108209C0025C1D4F40
:102CE00082E003C0025C1D4F83E0F80180830E5335
:102CF0001240C801BE016F5F7F4F0E94CA12C858C0
:102D0000DF4F0FB6F894DEBF0FBECDBFCF91DF917E
:102D10001F910F91FF90EF90DF90CF90BF90AF90F9
:102D20000895095F1D4FF80180810E944A0981E0E2
:102D3000E6CF0F931F93CF93DF938C01FC01E45CEC
:102D4000FD4F11821082EF0116C03C96EE0FFF1F5F
:102D5000E00FF11F808191810E94514E88819981FD
:102D60000C96FC01EE0FFF1FE00FF11F1182108285
:102D70000B9799838883E881F981E530F10528F381
:102D8000DF91CF911F910F910895815C9D4FFC01C0
:102D90008EE1DF011D928A95E9F708952F923F9207
:102DA0004F925F926F927F928F929F92AF92BF925B
:102DB000CF92DF92EF92FF920F931F93DF93CF9307
:102DC000CDB7DEB7CD53D1400FB6F894DEBF0FBEFE
:102DD000CDBF6C010E940A07A82F2FE931E0C20E77
:102DE000D31E82E0F601808321E63EEFC20ED31EA1
:102DF000F601EB59FD4F8081882341F4AA24BB24BE
:102E0000C35DDE4F1882CD52D1400CC08EE789835E
:102E10001082B1E0AB2EB12C31E0C35DDE4F3883C0
:102E2000CD52D1404A2F592FCB01DA013C014D013F
:102E30000BE010E0FF245524C6018B599D4FC45C64
:102E4000DE4F99838883CC53D140F7E02F2EF2E0F8
:102E50003F2E2C0C3D1C44244394B8C0D1018C91CE
:102E60000E94EB081816190614F0EE248DC0F1012B
:102E700080810E940F09E1E0F0E0EC0FFD1FEA0DF8
:102E8000FB1D80830894A11CB11C0E940A07AC01A1
:102E9000CB01DA013C014D01FE01EA0DFB1DE08191
:102EA000EE37D1F48CE291E08A199B098E369105B8
:102EB00040F4C45CDE4FA881B981CC53D1404C9220
:102EC0000BC0C35DDE4FB881CD52D140BF5FC35D43
:102ED000DE4FB883CD52D140F1E0AF16B10441F4DA
:102EE000AA24BB24EE3761F4E1E0AE2EB12C08C079
:102EF0002CE2A21621E0B20618F0EE24E39401C001
:102F0000EE2486E0589E900111242C5F3F4FC901AA
:102F10008F0D911DA816B90679F491E0F91679F094
:102F2000FE01EA0DFB1D80818A58823050F00D5F52
:102F30001F4FFF24F39403C0A1E0FA1611F40F5FB2
:102F40001F4FFE01EA0DFB1DE081ED3729F4FF2044
:102F5000B1F40F5F1F4F13C0EA3839F4A216B3065D
:102F600071F40A5F1F4F53940AC0EE3741F4B1E089
:102F7000FB1629F40150104079EFF72EF00EA01641
:102F8000B10611F4EE24E3940E940A076615770552
:102F90008805990538F40E940A07AC01CB01DA01D3
:102FA0003C014D010E940A076619770988099909B1
:102FB000695B7B408040904038F0F601E95FFD4F4F
:102FC00080810E944A090CC0EE2051F4C45CDE4F9F
:102FD000A881B981CC53D1408C91882309F43ECF8C
:102FE00089818E3721F461E0E62EF12C13C051E087
:102FF000E52EF12C9E012F5F3F4F03C00894E11C8A
:10300000F11CF901EE0DFF1D80818E3719F0EA14D5
:10301000FB04A0F3882499242E010894411C511C20
:10302000F601E45CFD4FC25DDE4FF983E883CE52CA
:10303000D14096012F593D4FC05DDE4F3983288323
:10304000C053D140C6018E599D4FCE5CDE4F99834F
:103050008883C253D140D601AD59BD4FCC5CDE4F01
:10306000B983A883C453D140F601E05AFD4FCA5C2E
:10307000DE4FF983E883C653D1409601215A3D4F74
:10308000C85CDE4F39832883C853D1404FE9242ED2
:1030900041E0342E2C0C3D1C66246394C6018256FC
:1030A0009E4FC65CDE4F99838883CA53D140C0C00F
:1030B0000894E11CF11C80818E3721F03196EA14CE
:1030C000FB04B0F3870108191909F201E80DF91D95
:1030D000772420E030E007C080818D3709F47394B5
:1030E0002F5F3F4F319620173107B0F3C25DDE4F9F
:1030F000A881B981CE52D1402D933C93772041F0E5
:103100009701201B310BC601B201A8010E94F50EE8
:10311000D701A01BB10BE4E0F0E0EC0FFD1FEA0FBC
:10312000FB1FE081EB3841F1EC3820F4EA3809F07C
:1031300070C005C0E059E23008F06BC00BC0080D4C
:10314000191D07191109C601B201A8019D010E94AC
:10315000500F5FC0080D191D07191109C601B201F2
:10316000A8019D010E94EE15C65CDE4FE881F98141
:10317000CA53D14080834DC0E6E0F0E0EC0FFD1F64
:10318000EA0FFB1F8081C05DDE4FE881F981C053EB
:10319000D1408083E7E0F0E0EC0FFD1FEA0FFB1F5A
:1031A0008081CE5CDE4FE881F981C253D1408083BB
:1031B000E8E0F0E0EC0FFD1FEA0FFB1F8081CC5C24
:1031C000DE4FE881F981C453D1408083EAE0F0E02A
:1031D000EC0FFD1FEA0FFB1F8081CA5CDE4FE88108
:1031E000F981C653D140808329E030E02C0F3D1F88
:1031F000A20FB31F8C91C85CDE4FA881B981C85360
:10320000D1408C93882319F4F101108202C0D101BE
:103210006C92C35DDE4FB881CD52D140B150C35DD9
:10322000DE4FB883CD52D14047010894E11CF11C18
:10323000C35DDE4FE881CD52D140EE2321F0F20193
:10324000EE0DFF1D38CF2FE931E0C20ED31ED6019F
:103250008C91C35CDE4F0FB6F894DEBF0FBECDBFBE
:10326000CF91DF911F910F91FF90EF90DF90CF9062
:10327000BF90AF909F908F907F906F905F904F9096
:103280003F902F9008952F923F924F925F926F92AE
:103290007F928F929F92AF92BF92CF92DF92EF92E6
:1032A000FF920F931F93DF93CF93CDB7DEB7CF532A
:1032B000D1400FB6F894DEBF0FBECDBF4C01CE5C3F
:1032C000DE4F79836883C253D140FC01EB59FD4F37
:1032D0008081882341F422243324C35DDE4F188289
:1032E000CD52D1400CC010828EE7898321E0222E7E
:1032F000312C21E0C35DDE4F2883CD52D140CE5C1E
:10330000DE4FE881F981C253D14080818E3E39F48D
:1033100095E0A92EB12CC12CD12C1DE606C082E36C
:10332000A82EB12CC12CD12C1EE1CE5CDE4FE88141
:10333000F981C253D1408581853491F486818434EA
:1033400009F04EC026E032E0820E931EF401808127
:103350002AEF3DEF820E931E813009F041C0E3C198
:10336000843481F4CE5CDE4FE881F981C253D140D0
:1033700086818E34A9F508EEA02E03E0B02EC12C74
:10338000D12C2EC08E3461F5CE5CDE4FE881F98100
:10339000C253D1408681843419F526E032E0820E92
:1033A000931EF40180812AEF3DEF820E931E83303D
:1033B00039F4B0E4AB2EBCE9BB2EC12CD12C10C02B
:1033C0008450823038F4A0EBAA2EA6E3BA2EC12C8A
:1033D000D12C06C0F0E2AF2EFEE4BF2EC12CD12CC2
:1033E0000E940A07AC01CB01DA012C013D010E94C9
:1033F0000A07C25DDE4F688379838A839B83CE523E
:10340000D140A4014B595D4FC65CDE4F59834883C0
:10341000CA53D140C401895F9D4FC45CDE4F99837C
:103420008883CC53D140E12FF0E0C25CDE4FF983BA
:10343000E883CE53D14076C0C45CDE4FE881F98189
:10344000CC53D14080810E94EB08892B09F441C004
:10345000C45CDE4FE881F981CC53D14080810E9469
:103460000F09E1E0F0E0EC0FFD1FE20DF31D80839A
:103470000894211C311CFE01E20DF31D80818E3762
:1034800009F58CE291E082199309C25CDE4F288134
:103490003981CE53D1408217930748F421E0C65CAE
:1034A000DE4FE881F981CA53D14020830BC0C35D50
:1034B000DE4F3881CD52D1403F5FC35DDE4F388350
:1034C000CD52D1400E940A07AC01CB01DA012C0198
:1034D0003D010E940A070E940A070E940A077B0119
:1034E0008C010E940A07E418F50806091709AE14B2
:1034F000BF04C006D10600F1C25DDE4F28813981CC
:103500004A815B81CE52D140621B730B840B950BB9
:1035100061547C498040904078F44CE2241641E0AC
:10352000340650F4C65CDE4FE881F981CA53D140BD
:103530008081882309F480CF89818E3739F0E1E0DA
:10354000EE2EF12C9E012F5F3F4F2BC071E0E72E36
:10355000F12CCC24DD2462E0B62E55243E010894E3
:10356000611C711C9401245C3D4FCC5CDE4F39839F
:103570002883C453D140A40143565E4FCA5CDE4F3A
:1035800059834883C653D140C40182569E4FC85CBC
:10359000DE4F99838883C853D1409DC00894E11CB5
:1035A000F11CF901EE0DFF1D80818E3791F2E214BE
:1035B000F304A0F3CECF0894E11CF11C80818E3778
:1035C00021F03196E214F304B0F387010C191D09C0
:1035D000F301EC0DFD1DAA2420E030E007C080813E
:1035E0008D3709F4A3942F5F3F4F31962017310791
:1035F000B0F3CC5CDE4FE881F981C453D140318314
:103600002083AA2041F09701201B310BC401B30194
:10361000A8010E94F50ED701A01BB10BE4E0F0E079
:10362000EC0FFD1FEA0FFB1FE081E83861F0E9387D
:1036300010F4E05805C0EA38F1F0EA38D0F1E0596A
:10364000E230B8F524C00C0D1D1D0A191109C40182
:10365000B301CE5CDE4F48815981C253D1409801FD
:103660008D010E948C10B82ECA5CDE4FE881F98172
:10367000C653D1401DC00C0D1D1D0A191109C401EE
:10368000B301A8019D010E94500FB82E12C00C0D6D
:103690001D1D0A191109C401B301A8019D010E9451
:1036A000EE15B82EC85CDE4FE881F981C853D140D1
:1036B000B082BB2009F45394C35DDE4FF881CD5234
:1036C000D140F150C35DDE4FF883CD52D140670148
:1036D0000894E11CF11CC35DDE4F2881CD52D1401E
:1036E000222321F0F301EE0DFF1D68CF5110BB2402
:1036F0008B2DC15CDE4F0FB6F894DEBF0FBECDBF81
:10370000CF91DF911F910F91FF90EF90DF90CF90BD
:10371000BF90AF909F908F907F906F905F904F90F1
:103720003F902F90089558EBA52E5BE0B52EC12C4D
:10373000D12C56CE8F929F92AF92BF92CF92DF92B2
:10374000EF92FF920F931F93DF93CF93CDB7DEB726
:10375000C656D0400FB6F894DEBF0FBECDBF8C0169
:103760001A8219825FE3A52E52E0B52EA80EB91E6B
:10377000BE016D5F7F4FA5019E012F5F3F4F0E94ED
:103780004511095F1D4FF8018081075012408130BB
:1037900021F488EF95E00E94CB0CEE24FF2443E057
:1037A000842E912C8C0E9D1E37E0C32E32E0D32E3A
:1037B000C00ED11E0BC0F401EE0DFF1D8081F6017D
:1037C00060810E94E0090894E11CF11C89819A81C2
:1037D000E816F90684F3C801B5010E944319CA59D5
:1037E000DF4F0FB6F894DEBF0FBECDBFCF91DF9194
:1037F0001F910F91FF90EF90DF90CF90BF90AF900F
:103800009F908F9008954F925F926F927F928F92C8
:103810009F92AF92BF92CF92DF92FF920F931F932E
:10382000DF93CF93CDB7DEB76E970FB6F894DEBFB8
:103830000FBECDBF8C012B018EE789831A8288E0F1
:103840008C8382E58D838EE48E8389E48F83F801F7
:10385000E45CFD4F1182108203561E4F82E0D801B6
:103860008C930D591140DF01AE01485F5F4F08C0D6
:10387000FA01E80FF91F2083019611969C938E930D
:103880008D919C911197F201E80FF91F208122235D
:1038900079F78C5F8B83DE01149690E043E050E073
:1038A000E82FF0E0339604C08D91980F4F5F5F4F83
:1038B0004E175F07C8F3045C1D4FD8014D935C930E
:1038C0000C5312409E012F5F3F4FE20FF31F909564
:1038D00090838B81882E9924E3E0AE2EB12CA80C26
:1038E000B91CFF24390177E0C72E72E0D72EC00E35
:1038F000D11E08C0E60DF71D8081F60160810E948F
:10390000E009F394EF2DF0E0AE16BF069CF7C80176
:103910000E94C5160C5B1D4F8EE4D8018D938D015E
:1039200089E48C9305541240B801615C7D4FC80155
:103930000E944319982F8823F9F4F801E45CFD4FA5
:1039400011821082AF01B401645070400FC0F801C1
:10395000E20FF31FE151FF4FD201A20FB31F8C9171
:1039600080832F5F3F4FFA0131832083DA012D914D
:103970003C912617370758F3892F6E960FB6F894A7
:10398000DEBF0FBECDBFCF91DF911F910F91FF9092
:10399000DF90CF90BF90AF909F908F907F906F906F
:1039A0005F904F900895AF92BF92CF92DF92EF92C7
:1039B000FF920F931F93CF93DF937C01162F072F56
:1039C0005A010E94C516A12FB02FFD0101900020C1
:1039D000E9F73197DE2ED11AD694212F302FC90165
:1039E0008C01CE2CE7010EC088EF95E0F8016081D4
:1039F00041810E94290CC15CDD4F88830E5F1F4FFF
:103A0000CE53D2409E012C192D1570F338E1D316F8
:103A1000D9F4F701E45CFD4F11821082EF010EC072
:103A2000F701E20FF31FEA5BFD4FD501A20FB31FB1
:103A30008C9180832F5F3F4F398328832881398180
:103A40002031310568F364C080E1D816D9F4F7015C
:103A5000E45CFD4F11821082EF010EC0F701E20F0E
:103A6000F31FEA5BFD4FD501A20FB31F8C9180833A
:103A70002F5F3F4F398328832881398128303105D2
:103A800068F346C09BE0D916D9F4F701E45CFD4F1A
:103A900011821082EF010EC0F701E20FF31FEA5B03
:103AA000FD4FD501A20FB31F8C9180832F5F3F4F35
:103AB00039832883288139812330310568F328C070
:103AC000EAE0DE16D9F4F701E45CFD4F11821082C2
:103AD000EF010EC0F701E20FF31FEA5BFD4FD501C6
:103AE000A20FB31F8C9180832F5F3F4F39832883B0
:103AF000288139812230310568F30AC0ED0CF11CB0
:103B00002DE332E0E20EF31EF5018081F7018083A0
:103B1000DF91CF911F910F91FF90EF90DF90CF90A9
:103B2000BF90AF900895CF92DF92EF92FF920F93E4
:103B30001F93DF93CF93CDB7DEB7E2970FB6F8941C
:103B4000DEBF0FBECDBF7C01D62EC72E8DE991E022
:103B5000E80EF91E82E0F701808383E69EEFE80E0F
:103B6000F91EE7EBF4E0659174918E010F5F1F4F32
:103B7000C8010E94324FC701B8014D2D5C2D0E9433
:103B8000D31CC701B8010E94BE11C701B8010E9431
:103B90009A1B482F8823A9F48D2D9C2D9C01F90197
:103BA000D701A35EBE4F20E030E080818C938081FE
:103BB000882339F02F5F3F4F319611962031310520
:103BC000A1F7842FE2960FB6F894DEBF0FBECDBFEB
:103BD000CF91DF911F910F91FF90EF90DF90CF90E9
:103BE0000895CF92DF92EF92FF920F931F93DF938E
:103BF000CF93CDB7DEB7A1970FB6F894DEBF0FBE57
:103C0000CDBF7C016B0126E032E0E20EF31EF7012E
:103C100080812AEF3DEFE20EF31E813041F08330C8
:103C200031F0843021F0853011F092E023C08DE92D
:103C300091E0E80EF91E82E0F701808323E63EEF73
:103C4000E20EF31EEDE8F4E0659174918E010F5FD2
:103C50001F4FC8010E94324FC701B801A6010E9440
:103C6000D31CC701B8010E94BE11C701B8010E9450
:103C70009A1B982FE6E0F2E0EE0EFF1EF70180811E
:103C80002AEF3DEFE20EF31E823011F5EDE9F1E08F
:103C9000EE0EFF1EF701808323E63EEFE20EF31ED9
:103CA000EFE8F4E0659174918E010F5F1F4FC8013A
:103CB0000E94324FC701B801A6010E94D31CC70160
:103CC000B8010E94BE11C701B8010E949A1B982F2B
:103CD000992309F052C0E6E0F2E0EE0EFF1EF70174
:103CE00080812AEF3DEFE20EF31E813031F0833008
:103CF00021F0843011F08530D1F4F701E45CFD4F00
:103D000011821082AF010DC0F701E20FF31FD6013F
:103D1000A20FB31F8C9187872F5F3F4FFA0131832A
:103D20002083FA01208131812230310568F326E0B9
:103D300032E0E20EF31EF70180812AEF3DEFE20E42
:103D4000F31E8230D1F4F701E45CFD4F1182108242
:103D5000AF010DC0F701E20FF31FD601A20FB31F91
:103D60008C9187872F5F3F4FFA0131832083FA01BF
:103D7000208131812830310568F3892FA1960FB653
:103D8000F894DEBF0FBECDBFCF91DF911F910F9191
:103D9000FF90EF90DF90CF900895DF92EF92FF9227
:103DA0000F931F93CF93DF93D82EF92E162F072F43
:103DB0000E94C516A12FB02FFD0101900020E9F748
:103DC0003197EE2EE11AE694212F302FC9018C0194
:103DD0002D2D3F2DC901EC010EC088EF95E0F801B3
:103DE000608141810E94290CC15CDD4F88830E5F98
:103DF0001F4FCE53D2409E012D192E1570F3DF9127
:103E0000CF911F910F91FF90EF90DF900895EF9267
:103E1000FF920F931F93DF93CF93CDB7DEB76497D5
:103E20000FB6F894DEBF0FBECDBF7C012DE931E0A7
:103E3000E20EF31E82E0F701808323E63EEFE20EFE
:103E4000F31EEBEBF4E0659174918E010F5F1F4F51
:103E5000C8010E94324FC701B8010E94CD1EC701A0
:103E6000B8010E949A1B982F882361F4EAE0F2E0DF
:103E7000EE0EFF1EF701808123E23FEFE20EF31EFC
:103E8000F7018083892F64960FB6F894DEBF0FBECA
:103E9000CDBFCF91DF911F910F91FF90EF900895CB
:103EA000EF92FF920F931F93DF93CF93CDB7DEB7BF
:103EB00064970FB6F894DEBF0FBECDBF8C010356DA
:103EC0001E4F82E0F80180830D591140EFEAF4E0C3
:103ED000659174917E010894E11CF11CC7010E9458
:103EE000324FC801B7010E94CD1EC801B7010E9420
:103EF0009A1B64960FB6F894DEBF0FBECDBFCF916C
:103F0000DF911F910F91FF90EF900895EF92FF9234
:103F10000F931F93DF93CF93CDB7DEB764970FB6A0
:103F2000F894DEBF0FBECDBF7C012DE931E0E20E7B
:103F3000F31E82E0F701808323E63EEFE20EF31EDC
:103F4000E1EAF4E0659174918E010F5F1F4FC801A3
:103F50000E94324FC701B8010E94CD1EC701B801AF
:103F60000E949A1B982F882361F4EAE0F2E0EE0E9B
:103F7000FF1EF701808124EE3EEFE20EF31EF701F3
:103F80008083892F64960FB6F894DEBF0FBECDBF35
:103F9000CF91DF911F910F91FF90EF900895EF92D5
:103FA000FF920F931F93DF93CF93CDB7DEB7619747
:103FB0000FB6F894DEBF0FBECDBF7C012DE931E016
:103FC000E20EF31E82E0F701808323E63EEFE20E6D
:103FD000F31EE1E8F4E0659174918E010F5F1F4FCD
:103FE000C8010E94324FC701B8010E94CD1EC7010F
:103FF000B8010E949A1B982F882381F5EAE0F2E02D
:10400000EE0EFF1EF701808126EF3DEFE20EF31E5C
:10401000F70187832BE032E0E20EF31EF701808187
:1040200025EF3DEFE20EF31EF70180872CE032E032
:10403000E20EF31EF701808124EF3DEFE20EF31E46
:10404000F70181872DE032E0E20EF31EF701808157
:1040500023EF3DEFE20EF31EF7018287892F619671
:104060000FB6F894DEBF0FBECDBFCF91DF911F9189
:104070000F91FF90EF900895EF92FF920F931F938F
:10408000DF93CF93CDB7DEB761970FB6F894DEBF5D
:104090000FBECDBF7C012DE931E0E20EF31E82E0C0
:1040A000F701808323E63EEFE20EF31EEFE7F4E034
:1040B000659174918E010F5F1F4FC8010E94324FAE
:1040C000C701B8010E94CD1EC701B8010E949A1B0A
:1040D000982F882381F5EAE0F2E0EE0EFF1EF7014B
:1040E000808126EF3DEFE20EF31EF70183832BE084
:1040F00032E0E20EF31EF701808125EF3DEFE20E84
:10410000F31EF70184832CE032E0E20EF31EF70188
:10411000808124EF3DEFE20EF31EF70185832DE051
:1041200032E0E20EF31EF701808123EF3DEFE20E55
:10413000F31EF7018683892F61960FB6F894DEBFD0
:104140000FBECDBFCF91DF911F910F91FF90EF90E8
:104150000895BF92CF92DF92EF92FF920F931F9339
:10416000CF93DF937C01162F072FB42E0E94C51624
:10417000A12FB02FFD0101900020E9F73197DE2E2D
:10418000D11AD694212F302FC9018C01CE2CE701F2
:104190000EC088EF95E0F801608141810E94290CF2
:1041A000C15CDD4F88830E5F1F4FCE53D2409E010E
:1041B0002C192D1570F3ED0CF11C8DE392E0E80E37
:1041C000F91EF701B082DF91CF911F910F91FF90FF
:1041D000EF90DF90CF90BF900895DF92EF92FF9223
:1041E0000F931F93DF93CF93CDB7DEB764970FB6CE
:1041F000F894DEBF0FBECDBF7C01D62E2DE931E095
:10420000E20EF31E82E0F701808323E63EEFE20E2A
:10421000F31EE9EBF4E0659174918E010F5F1F4F7F
:10422000C8010E94324FC701B8014D2D0E94A9203C
:10423000C701B8010E94BE11C701B8010E949A1BB4
:10424000882331F4EDE2F1E0EE0EFF1EF701D0829B
:1042500064960FB6F894DEBF0FBECDBFCF91DF914D
:104260001F910F91FF90EF90DF900895DF92EF92F2
:10427000FF920F931F93DF93CF93CDB7DEB7649771
:104280000FB6F894DEBF0FBECDBF7C01D62E26E060
:1042900032E0E20EF31EF70180812AEF3DEFE20EDD
:1042A000F31E813021F0833011F0843029F58DE93F
:1042B00091E0E80EF91E82E0F701808323E63EEFED
:1042C000E20EF31EEFE9F4E0659174918E010F5F49
:1042D0001F4FC8010E94324FC701B8014D2D0E94E7
:1042E000A920C701B8010E94BE11C701B8010E94F0
:1042F0009A1B882349F00EC08DE991E0E80EF91E63
:104300008FEFF701808306C02EEE30E0E20EF31E41
:10431000F701D08264960FB6F894DEBF0FBECDBF12
:10432000CF91DF911F910F91FF90EF90DF90089553
:104330000F931F93CF93DF93EC01CC5FDD4F888108
:10434000C450D240813069F0813018F08230B9F524
:1043500026C0FE01E651FE4FCE0160810E9436214B
:104360002BC0FE01E45CFD4F118210828F0110C052
:10437000FE01E80FF91FE551FE4F85599F4F6081FF
:104380000E94714FF8018081918101969183808311
:10439000F801808191818830910550F310C0FE01B1
:1043A000ED5FFD4FCE0160810E94ED20BE016D509A
:1043B0007E4FCE010E94931DCE010E94501FDF91BF
:1043C000CF911F910F9108950F931F93CF93DF9378
:1043D000EC018C010B5F1D4FF8018081882381F176
:1043E0000E940A070E940A07C852DE4F28813981BD
:1043F0004A815B81C85DD140621B730B840B950BB6
:104400006151774280409040DCF0F8011082C45244
:10441000DE4F86E796E0BE010E94D74326971982B9
:104420001882629619921882C95ED140CE010E940C
:104430009821C95FDD4F88810E944A0981E001C04F
:1044400080E0DF91CF911F910F9108958F929F92FD
:10445000AF92BF92CF92DF92EF92FF920F931F9392
:10446000DF93CF93CDB7DEB7CC55D0400FB6F894DD
:10447000DEBF0FBECDBF7C01DC019396EC91F0E076
:104480003B96EE0FFF1FE80FF91F0190F081E02D22
:104490002CE332E0E20EF31ED7011D921C9229ECB0
:1044A0003FEFE20EF31ED7018C912BEF3DEFE20EB2
:1044B000F31E882309F454C1BF0162587F4F97014E
:1044C00022533E4FAF014E575F4FDB019C91D90104
:1044D0008C91981711F020E008C06F5F7F4F2F5F1D
:1044E0003F4F6417750789F721E0E658FF4F42ED0B
:1044F00051E0E40EF51E9081EA57F040D7018C910F
:104500004EE25EEFE40EF51E981709F01CC1E55867
:10451000FF4F83ED91E0E80EF91E9081EB57F040DC
:10452000D7018C914DE25EEFE40EF51E981709F06D
:104530000AC1E458FF4F84ED91E0E80EF91E908126
:10454000EC57F040D7018C914CE25EEFE40EF51E83
:10455000981709F0F8C0E358FF4F85ED91E0E80E99
:10456000F91E9081ED57F040D7018C914BE25EEF40
:10457000E40EF51E981709F0E6C0222309F4E3C003
:10458000E08986EE91E0E80EF91ED701EC932AE16E
:104590003EEFE20EF31EEE2369F446ED51E0E40E29
:1045A000F51ED7018D919C912AE23EEFE20EF31E9B
:1045B000892B21F147EE51E0E40EF51ED7012C9135
:1045C00049E15EEFE40EF51E8E2F90E0821B91090B
:1045D0008130910599F0EE2309F07EC02F3F09F05C
:1045E0007BC00CC0FB01EC0DFD1DAC0DBD1D51963B
:1045F0008C9180830894C11CD11C05C0CC24DD247F
:10460000BE016F5F7F4FD7019396EC91F0E03B9630
:10461000EE0FFF1FEE0DFF1DA081B181A059BF4F0E
:104620008D919C911197A057B0400597C816D90657
:10463000C8F280E996E0A6010E94A2408C01E9EE52
:10464000F1E0EE0EFF1ED7011C920E940A07EFEE6A
:10465000FFEFEE0EFF1ED7016D937D938D939C931C
:104660001397E8E2FEEFEE0EFF1E86EDA82E81E026
:10467000B82EAE0CBF1CB8EE8B2EB1E09B2E8E0C6C
:104680009F1C0C151D05B9F025E032E0E20EF31E6B
:10469000D7011C92EBEFFDEFEE0EFF1EB701645247
:1046A0007E4F86E796E00E94D743D5011D921C926B
:1046B000F401108252C0D5018D919C911197019601
:1046C0008D939C93E6EEF1E0EE0EFF1ED7018D91E7
:1046D0008C93F401108244C0E21709F441C0A8EEA3
:1046E0008A2EA1E09A2E8E0C9F1C029721F481E065
:1046F000D4018C9335C0E5E0F2E0EE0EFF1ED70149
:104700001C92E7EDFFEFEE0EFF1E86E796E0B70185
:104710000E94D7432AEF3FEFE20EF31ED7011D920E
:104720001C92EAE2FEEFEE0EFF1ED4011C92C701BE
:104730000E949821E7E0F2E0EE0EFF1ED7018C9177
:104740000E944A090DC0E5E0F2E0EE0EFF1ED7011F
:104750001C92EBEFFDEFEE0EFF1EC7010E949821A9
:10476000C45ADF4F0FB6F894DEBF0FBECDBFCF9156
:10477000DF911F910F91FF90EF90DF90CF90BF904E
:10478000AF909F908F9008958F929F92AF92BF921B
:10479000CF92DF92EF92FF920F931F93DF93CF930D
:1047A000CDB7DEB7C25FD1400FB6F894DEBF0FBE03
:1047B000CDBF7C01DC019396EC91F0E03B96EE0FCF
:1047C000FF1FE80FF91F80809180ECE0F0E08E0E73
:1047D0009F1E5401EBE6CE2ED12CD50114961C91D0
:1047E00088EF95E0B6010E94570D181711F090E080
:1047F0000BC00894A11CB11C0894C11CD11CB3E7C8
:10480000CB16D10451F791E0E4E0F2E0EE0EFF1E8A
:1048100083E0D7018C93ECEFFDEFEE0EFF1E9923A2
:1048200009F4BCC229EE31E0E20EF31ED7018C91EF
:10483000E7E1FEEFEE0EFF1E882309F0AFC20E94F3
:10484000F63B825C91400CF4B3C225E032E0E20E0C
:10485000F31E81E0D7018C930E940A07E3EDFFEF7E
:10486000EE0EFF1ED7016D937D938D939C9313974E
:10487000E8E2FEEFEE0EFF1EA701445C5D4FDA0199
:104880001D921C929A016AE216C0D701AE0FBF1F9B
:10489000E730F10520F0A056BE4F6C9306C0A0563D
:1048A000BE4FE80DF91D84858C93F90180819181BB
:1048B000019691838083D901ED91FC91E032F1055D
:1048C00020F3EE0DFF1DE056FE4F1082FA0111821B
:1048D0001082A701445C5D4F0CC0AF53BE4FF40182
:1048E000E20FF31F83898C932F5F3F4FDA012D93E3
:1048F0003C93FA0120813181D701A20FB31F2C30E4
:10490000310558F3AF53BE4F1C92D7019396EC91EB
:10491000F0E03B96EE0FFF1FEE0DFF1D0190F081C2
:10492000E02DE059FF4F808191818097C9F5E6E045
:10493000F2E0EE0EFF1ED7018C91EAEFFDEFEE0ED6
:10494000FF1E813069F5D4015F961C91C7010E945A
:10495000861FF701E651FE4F2EEE30E0E20EF31E09
:10496000D7018C918083EFEAF0E0EE0EFF1ED701B5
:104970008C91E3E6FEEFEE0EFF1E882321F4C701C3
:10498000612F0E943621C7010E94501F24E032E0AF
:10499000E20EF31ED7011C92ECEFFDEFEE0EFF1EB0
:1049A000D7019396EC91F0E03B96EE0FFF1FEE0DD2
:1049B000FF1D0190F081E02DE059FF4F8081918132
:1049C000879709F059C0E6E0F2E0EE0EFF1ED7012E
:1049D0008C91EAEFFDEFEE0EFF1E8250823008F060
:1049E0004BC05CE3A52E52E0B52EAE0CBF1CD5012A
:1049F0001D921C92650114C0B80165597F4F88EF64
:104A000095E00E94570D0E0D1F1D05511E4FF80118
:104A10008083D6018D919C91119701968D939C93E3
:104A2000F601008111810830110530F3D5011D9286
:104A30001C928701045C1D4F0EC0F401E80FF91FA2
:104A400085599F4F678D0E94714FF8018081918138
:104A5000019691838083D8018D919C918830910536
:104A600060F3E4E0F2E0EE0EFF1E81E0D7018C93EC
:104A7000ECEFFDEFEE0EFF1ED7019396EC91F0E008
:104A80003B96EE0FFF1FEE0DFF1D0190F081E02D14
:104A9000E059FF4F80819181CF9709F072C0E6E025
:104AA000F2E0EE0EFF1ED7018C91EAEFFDEFEE0E65
:104AB000FF1E8450823008F064C0A701445C5D4F43
:104AC000DA011D921C92BA0110C0F701E20FF31F28
:104AD000ED50FE4FD401A20FB31F5F968C918083DF
:104AE0002F5F3F4FFB0131832083DB012D913C91F0
:104AF0002031310550F3FA01118210829701245CB4
:104B00003D4F8E010F5F1F4F0FC0F801EA0FFB1FD3
:104B1000A80DB91D9F968C918083D9018D919C9190
:104B2000119701968D939C93F901A081B181A031D9
:104B3000B10558F3C7010E94071FF701ED5FFD4F54
:104B40002DE231E0E20EF31ED7018C9123ED3EEF12
:104B5000E20EF31E8083C70161E00E94ED20C701D1
:104B6000B8010E94931DC7010E94501F84E092E08B
:104B7000E80EF91E82E0D7018C93ECEFFDEFEE0E0C
:104B8000FF1ED7019396EC91F0E03B96EE0FFF1FCE
:104B9000EE0DFF1D0190F081E02DE258FF4F819155
:104BA0002EEC31E0E20EF31ED7018C930894E11C49
:104BB000F11C8191D7018D9381918D9380818D938B
:104BC000379781918D9381918D9381918D937D0103
:104BD00080818C93EBE2FEEFEE0EFF1EF701E45CAA
:104BE000FD4F1182108209C0A056BE4F8C91DC96F9
:104BF0008C932F5F3F4F3183208320813181D701F8
:104C0000A20FB31F2730310578F3A452BE4F1C9278
:104C100026ED31E0E20EF31ED7011D921C92E0E179
:104C2000F0E0EE0EFF1ED7011D92FD011192DF0193
:104C30001D927D0111E01C93E7E1FEEFEE0EFF1ED9
:104C40008AEA96E00E946A3D80E996E00E946A3D09
:104C500086E796E00E946A3D8CEF98E00E94D94971
:104C6000F701EC58FD4F882319F0108320E002C0B3
:104C7000108221E0FE01F2963AE2CE018E509E4F64
:104C80003193E817F907E1F71082222309F07BC07E
:104C9000870104521E4F80E996E066E776E0A8019E
:104CA0002EE30E94BE42882381F486E796E0B80195
:104CB0000E94D74380E996E066E776E0A8012EE3FC
:104CC0000E94BE42882309F45EC0E8E7F6E06591E1
:104CD00074918E010F5E1F4FC8010E94324FF80180
:104CE00001900020E9F73197E01BF10B80E996E095
:104CF000B801AF010E94A2404C01D8010D900020E4
:104D0000E9F76D010894C108D108C01AD10A8701DA
:104D100000561E4FD8010D900020E9F71197A01BF7
:104D2000B10B80E996E0B801AD010E94A240F80104
:104D300001900020E9F73197E01BF10B8E179F07D8
:104D400021F4BB248C149D0411F0BB24B3948E0178
:104D50000E5C1F4FF80101900020E9F73197E01B2E
:104D6000F10B80E996E0B801AF010E94A240F80182
:104D700001900020E9F73197E01BF10B8E179F0798
:104D800011F4BB20B9F0E5E0F2E0EE0EFF1ED70112
:104D90001C92EBEFFDEFEE0EFF1E07C0F701EB5F7D
:104DA000FD4F8081882331F41082C7010E94982131
:104DB00081E001C080E0CE50DE4F0FB6F894DEBF38
:104DC0000FBECDBFCF91DF911F910F91FF90EF905C
:104DD000DF90CF90BF90AF909F908F9008954F92AB
:104DE0005F926F927F928F929F92AF92BF92CF927B
:104DF000DF92EF92FF920F931F93DF93CF93CDB784
:104E0000DEB72A970FB6F894DEBF0FBECDBF5C01A8
:104E10007B016A0129010130A9F58A01E3E0CE2E68
:104E2000D12CCC0EDD1E3E010894611C711C7BE070
:104E3000872E912C8C0E9D1EF801808189838181A3
:104E40008A8388EF95E0B3010E94EF0BF60181930E
:104E50006F010E5F1F4FE815F90571F78B81F701A0
:104E600084838C8185838D8186838E8187838F81E6
:104E7000808388858183898582838A85838381E095
:104E8000818720C00023F1F4FA0180818983818128
:104E90008A8388EF95E08E010F5F1F4FB8010E9453
:104EA000EF0B8B83F6018281898383818A8388EF6C
:104EB00095E0B8010E94EF0B8C839B81F7019287EC
:104EC00083871186F501E35AFD4F1182108220E09D
:104ED000DF010FC08D919C911197F701E80FF91F29
:104EE0003487019611969C938E938436910538F4FD
:104EF0002F5FF201E20FF11D3081332359F780E774
:104F000090E0E80EF91EEDE5F2E0AE0EBF1EF501F1
:104F100080819181F7019183808381E02A960FB689
:104F2000F894DEBF0FBECDBFCF91DF911F910F91DF
:104F3000FF90EF90DF90CF90BF90AF909F908F90B9
:104F40007F906F905F904F9008958F929F92AF9255
:104F5000BF92CF92DF92EF92FF920F93DF93CF93A6
:104F6000CDB7DEB761970FB6F894DEBF0FBECDBFE9
:104F70006C015B01490188EF95E0BA017E0108945C
:104F8000E11CF11CA7010E94EB0BC601B501A701B2
:104F900094010E94EF2661960FB6F894DEBF0FBE13
:104FA000CDBFCF91DF910F91FF90EF90DF90CF9029
:104FB000BF90AF909F908F9008950F9301E00E9453
:104FC000A5270F9108950F931F93CF93DF93EC01C3
:104FD0008B0188EF95E00E94BA0CC45CDD4F19820A
:104FE0001882E6978881C650D240833061F08430C1
:104FF00028F4813061F0823041F41EC08430F1F138
:10500000853019F444C089E443C080E041C0C35DE9
:10501000DE4F8881CD52D1408823C9F1F8018085C7
:10502000813011F48FE534C0F8018185882311F0B7
:105030008EE52EC082E62CC0C35DDE4F8881CD5246
:10504000D140F8019085882331F4913011F084E546
:105050001FC08CE51DC0FE01E959FD4F913039F4A8
:105060008081882311F48AE413C086E411C0808112
:10507000882311F482E40CC08EE30AC0C35DDE4FC6
:105080008881CD52D140882311F080E501C084E6AB
:10509000282F30E0F801E059FF4F808191812817D7
:1050A000390710F431832083E881F9810280F3818C
:1050B000E02DCE01B8010995DF91CF911F910F919D
:1050C00008953F924F925F926F927F928F929F923C
:1050D000AF92BF92CF92DF92EF92FF920F931F9306
:1050E000DF93CF93CDB7DEB7C45DD0400FB6F89451
:1050F000DEBF0FBECDBF5C010E94F63B80599140E0
:105100000CF4CEC2D5019396EC91F0E03B96EE0FF5
:10511000FF1FEA0DFB1DC080D180ECE0F0E0CE0E59
:10512000DF1EF501E45CFD4F118210827F0114C087
:10513000F601E60FF71F148165597F4F88EF95E060
:105140000E94570D181709F00BC2D7018D919C9141
:10515000119701968D939C93F7016081718168305E
:10516000710530F395C281E080838CEF98E00E9456
:10517000D94924E732E0A20EB31ED5018C91ECE8A8
:10518000FDEFAE0EBF1E882309F4EAC1F501E45C11
:10519000FD4F118210829F01AE01475F5F4F0FC02C
:1051A000FA01EA0FFB1FAC0DBD1D1C968C9180838C
:1051B000D9018D919C91119701968D939C93F90142
:1051C000A081B181A730B10558F3188A8AEA96E028
:1051D00066E776E04DE053E021E00E94BE4288237E
:1051E00009F4BEC186E796E0BE01675F7F4F0E946B
:1051F000D743182F80E996E00E946A3D80E996E047
:1052000066E776E046E153E02EE30E94BE42882343
:1052100019F0DD24112311F4DD24D3940E940A0730
:105220003B014C01CC24C394332452E3452E512C32
:105230004C0E5D1E8501045C1D4F40E6E42EF12CF2
:10524000EC0EFD1E56C0D8011D921C920DC0F70138
:10525000E20FF31FD201A20FB31F8C9180832F5F47
:105260003F4FF80131832083D8012D913C91119754
:105270002E32310560F32E0D3F1DF90110821D9273
:105280001C9212C0F701E20FF31FA9E0B0E0AC0FCF
:10529000BD1FA20FB31F90818C91981769F42F5FE7
:1052A0003F4FD8012D933C93F80120813181273065
:1052B000310540F3CC20E9F4F70101900020E9F733
:1052C0003197EE19FF0980E996E0B701AF010E941E
:1052D000A240F70101900020E9F73197EE19FF098C
:1052E0008E179F0719F4CC24C39403C0DD24D394F4
:1052F000CC240E940A076619770988099909605623
:105300007A4E8040904078F4332069F48AEA96E03F
:10531000B2014EE250E00E945D3E843008F093CF2F
:1053200033243394E6CF80E996E00E946A3D8AEA0E
:1053300096E00E946A3D86E796E06DE073E00E9489
:10534000D743882311F4DD24D3948AEA96E066E7F4
:1053500076E04DE053E02EE30E94BE42882311F434
:10536000DD24D39480E996E066E776E046E153E0F9
:1053700021E00E94BE42882309F4F2C00E940A077D
:105380003B014C01CC2432E3432E512C4C0E5D1ECC
:105390002CE3E22E22E0F22EEA0CFB1C8E01005AD6
:1053A0001F4F34C0D7011D921C920DC0F801E20FAF
:1053B000F31FD201A20FB31F8C9180832F5F3F4F49
:1053C000F70131832083D7012D913C912E32310595
:1053D00068F3200F311FF9011082F80101900020BD
:1053E000E9F73197E01BF10B8AEA96E0B801AF01CB
:1053F0000E94A240F80101900020E9F73197E01BDC
:10540000F10B8E179F0711F0DD24D3940E940A0739
:10541000661977098809990960567A4E804090404C
:1054200078F4CC2069F480E996E0B2014EE250E0D5
:105430000E945D3E843008F0B5CFCC24C394E6CF03
:1054400080E996E00E946A3D86E796E066E173E0B7
:105450000E94D743DD2009F083C081E090E06FE82F
:1054600070E00E94884D6C01DC0118961C92D501F9
:105470009396EC91F0E03B96EE0FFF1FEA0DFB1DBB
:105480000190F081E02DE258FF4F81918983819155
:105490008A8381918B8380818C83379781918D83DF
:1054A00081918E8381918F8380818887E4E7F6E004
:1054B0006591749181E1E82EF12CEC0EFD1EC7017F
:1054C0000E94324F8E0101571F4F8CE3F8018083F9
:1054D0008DE381838EE3828388E783831482C8010E
:1054E000B7010E944D4FC501B601AE014F5F5F4F3E
:1054F00098010E94DD270E940A07DC01CB010E946F
:10550000094F0E94044F68EE73E00E941E4D019601
:10551000AA2797FDA095BA2FBC01CD010E942207B2
:1055200000E010E0C501B6010E94E327882319F4CA
:1055300003E010E00FC00E94044F68EE73E00E9489
:105540001E4D0196AA2797FDA095BA2FBC01CD014B
:105550000E9422070F5F1F4F033011051CF382C00A
:1055600081E090E06FE870E00E94884D6C01DC0102
:1055700018961C92D5019396EC91F0E03B96EE0FB5
:10558000FF1FEA0DFB1D0190F081E02DE258FF4F57
:105590008191898381918A8381918B8380818C839E
:1055A000379781918D8381918E8381918F838081C3
:1055B0008887E6E7F6E06591749111E1E12EF12C20
:1055C000EC0EFD1EC7010E94324F8E0101571F4F86
:1055D0008CE3F80180838DE381838EE3828388E707
:1055E00083831482C801B7010E944D4FC501B601E3
:1055F000AE014F5F5F4F98010E94DD270E940A07AE
:10560000DC01CB010E94094F0E94044F68EE73E059
:105610000E941E4D0196AA2797FDA095BA2FBC01A6
:10562000CD010E94220700E010E0C501B6010E94F2
:10563000E327882319F403E010E00FC00E94044F11
:1056400068EE73E00E941E4D0196AA2797FDA09573
:10565000BA2FBC01CD010E9422070F5F1F4F0330FC
:1056600011051CF3C6010E94514E8AEA96E00E9481
:105670006A3D80E996E00E946A3D86E796E00E94D6
:105680006A3D24E732E0A20EB31ED5011C9208C089
:10569000F501EC58FD4F8081882309F06ACD63CD78
:1056A000CC52DF4F0FB6F894DEBF0FBECDBFCF9107
:1056B000DF911F910F91FF90EF90DF90CF90BF90FF
:1056C000AF909F908F907F906F905F904F903F90A2
:1056D00008958F929F92AF92BF92CF92DF92EF92F6
:1056E000FF920F931F93DF93CF93CDB7DEB7C05CCC
:1056F000D0400FB6F894DEBF0FBECDBF5C010E9454
:10570000F63B805991400CF442C28EE160E00E9469
:1057100036086CE3C62E62E0D62ECA0CDB1CF601FE
:105720001182108276015AE1852E912C8C0E9D1EDD
:105730001CC0B8016E5D7F4F88EF95E00E94570D49
:10574000080D191DF8018083F70180819181F40112
:10575000E80FF91F8E5B9F4F60810E94714FF70128
:1057600080819181019691838083F701008111816D
:1057700000321105F0F2F601118210824CE3E42EA2
:1057800042E0F42EEA0CFB1C39E0C32ED12CCC0EE7
:10579000DD1E11C0B8016D567F4F88EF95E00E9465
:1057A000570D0C0D1D1DF8018083F701808191813B
:1057B000019691838083F7010081118100311105E9
:1057C00048F3198E88EF95E061E070E00E94570D74
:1057D000813009F067C1F701118210822CE3E22EBB
:1057E00022E0F22EEA0CFB1C9AE3C92ED12CCC0E3F
:1057F000DD1E0DC0C80102960E94694FF601E00F40
:10580000F11F80830F5F1F4FF70111830083F701A2
:10581000008111810032110568F311821082DD24AC
:10582000D3948CE3E82E82E0F82EEA0CFB1C0AE30A
:10583000802E912C8C0E9D1E0FC0C80182960E9456
:10584000694FF401E00FF11F90819813DD240F5F81
:105850001F4FF70111830083F7010081118100328E
:10586000110558F381E090E060E00E94714FDD2067
:1058700009F48CC081E090E06FE870E00E94884DF0
:105880006C01FC011086F701118210821CE3E12EED
:1058900012E0F12EEA0CFB1C4E010894811C911CB5
:1058A00011C0B8016D597F4F88EF95E00E94570DE8
:1058B000080D191DF8018083F701808191810196FF
:1058C00091838083F701008111810830110548F32D
:1058D000EEE6F6E065917491BAE5EB2EF12CEC0E54
:1058E000FD1EC7010E94324F8E0105581F4F8CE3E9
:1058F000F80180838DE381838EE3828389E783834C
:105900001482C801BE01675F7F4F0E944D4FC801DE
:10591000B7010E944D4FC501B601A40198010E9434
:10592000DD270E940A07DC01CB010E94094F0E947B
:10593000044F68EE73E00E941E4D0196AA2797FD62
:10594000A095BA2FBC01CD010E94220700E010E013
:10595000C501B6010E94E327882319F403E010E093
:105960000FC00E94044F68EE73E00E941E4D019626
:10597000AA2797FDA095BA2FBC01CD010E9422074E
:105980000F5F1F4F033011051CF3F5C081E090E05D
:105990006FE870E00E94884D6C01FC011086F701F1
:1059A00011821082ACE3EA2EA2E0FA2EEA0CFB1C74
:1059B0004E010894811C911C11C0B8016D597F4F94
:1059C00088EF95E00E94570D080D191DF80180839E
:1059D000F70180819181019691838083F701008195
:1059E00011810830110548F3E0E7F6E06591749104
:1059F000FAE5EF2EF12CEC0EFD1EC7010E94324F8E
:105A00008E0105581F4F8CE3F80180838DE381835D
:105A10008EE3828389E783831482C801BE01675FB6
:105A20007F4F0E944D4FC801B7010E944D4FC501E5
:105A3000B601A40198010E94DD270E940A07DC013B
:105A4000CB010E94094F0E94044F68EE73E00E9450
:105A50001E4D0196AA2797FDA095BA2FBC01CD0136
:105A60000E94220700E010E0C501B6010E94E32772
:105A7000882319F403E010E00FC00E94044F68EE81
:105A800073E00E941E4D0196AA2797FDA095BA2F9C
:105A9000BC01CD010E9422070F5F1F4F033011058B
:105AA0001CF369C081E090E06FE870E00E94884DCF
:105AB0006C0181E0F6018087E2E7F6E06591749180
:105AC000EAE5EE2EF12CEC0EFD1EC7010E94324FCE
:105AD0008E0105581F4F8CE3F80180838DE381838D
