:100000000C94CE030C94343F0C94653F0C94963FB3
:100010000C94C73F0C94F83F0C9429400C945A4020
:100020000C948B400C94F8030C94F8030C94F80394
:100030000C943B090C94F8030C94F8030C942108DD
:100040000C94F8030C94F8030C94F8030C94F80344
:100050000C94F8030C94F8030C94F8030C94FC072C
:100060000C94F8030C949A0A0C94F8030C94F8037B
:100070000C94F8030C94F8030C94F8030C94F80314
:100080000C94F8030C94F8030C94F8030C94F80304
:100090000C94DB0A0C94F8030C94F8030C94D43DF4
:1000A0000C94F8030C94F8030C94F8030C94F803E4
:1000B0000C94F8030C94F8030C94F8030C94F803D4
:1000C0000C94F8030C94F8030C94F8034F5441502B
:1000D00000436F6E2061637475616C697A61636956
:1000E0006F6E6573202E2E2E20004572726F722067
:1000F000656E206C6120726563657063696F6E0068
:1001000053657420746865206D6163206F66206399
:100110006F6F7264696E61746F723A200053657418
:100120002074686520636C6F636B20746F3A2000E5
:1001300054696D65205B59593A4D4D3A44443A64CF
:10014000773A68683A6D6D3A73735D3A20003745C7
:100150003030303430383532353334433036003790
:100160004530303034303835323533343830410072
:100170003745303030363038353234443539303028
:10018000303030300037453030303430383532346C
:100190004435394646003745303030353038353211
:1001A0003432343430303030003745303030353050
:1001B000383532343135303030303000374530303A
:1001C0003035303835323431344630303030003725
:1001D00045303030363038353234393434303030E0
:1001E00030303000374530303043303835323439F4
:1001F00034343030303030303030303030303030F7
:1002000030303030003745303030343038353234EB
:1002100039343431380037453030303530383532C4
:1002200035333444303030300037453030303430BE
:100230003835323533344430350037453030303698
:1002400030383532353335343030303030300037B7
:100250004530303037303835323533353430303062
:10026000303030303000374530303036303835328D
:100270003533353030303030303000374530303085
:10028000373038353235333530303030303030304B
:10029000300037453030303530383532343334384B
:1002A000303030300037453030303430383532344B
:1002B000333438314100374530303034303835321E
:1002C00034453439304500374530303035303835F5
:1002D0003234453534303030300037453030303608
:1002E0003038353234453534303030303030003706
:1002F00045303030343038353234453534303300E1
:10030000374530303035303835323445344630308A
:1003100030300037453030303430383532344534C1
:1003200046303800374530303034303835323537A4
:100330003532464300374530303036303835323587
:1003400033343330303030303000374530303034B3
:10035000303835323533343330460037453030307D
:100360003430383532353334343045003745303069
:100370003134303835323442353930303030303045
:10038000303030303030303030303030303030306D
:100390003030303030303030303030300037453071
:1003A0003030353038353234353435303030300057
:1003B00037453030303430383532343534353142E9
:1003C0000037453030303530383532353034433011
:1003D0003030300037453030303430383532343416
:1003E00034323146003745303030343038353234ED
:1003F00038353630370037453030303430383532E4
:1004000035363532464400374530303035303835B2
:1004100032353235303030303000374530303034DE
:1004200030383532353235303033003745303030C2
:1004300034303835323431343332310037453030AE
:100440003034303835323436353230440037453088
:100450003030343038353235323435304500374578
:100460003030303530383532353334463030303056
:10047000003745303030343038353235333446305B
:100480003300374530303034303835323445343449
:10049000313300374530303035303835323435344B
:1004A0003430303030003745303030353038353248
:1004B000353334343030303000374530303034303C
:1004C000383532343434433135004E015F01700128
:1004D00085019601A901BC01CF01E40105021602C4
:1004E00029023A024F0266027B029202A502B6027C
:1004F000C702DA02EF0200031303240335034A03A1
:100500005B036C039D03B003C103D403E503F6034F
:1005100007041A042B043C044D045E047104820495
:100520009304A604B90450524F4752414D205245FE
:10053000434549564544204F4B2424242424242455
:100540002424242424240050524F4752414D205249
:1005500045434549564544204552524F5224242490
:100560002424242424242400535441525420574941
:100570005448204649524D57415245204F4B242460
:10058000242424242424242424242424242424242B
:100590002424242424242424005354415254205736
:1005A000495448204649524D5741524520455252E0
:1005B0004F522424242424242424242424242424A2
:1005C0002424242424242424240052454144204269
:1005D0004F4F544C495354242424242424242424A9
:1005E0002424242424242424004E45572050524FF0
:1005F0004752414D2052554E4E494E472424242403
:100600002424242424242424240050524556494FD1
:1006100055532050524F4752414D2052554E4E494E
:100620004E47242424242424242400524553544196
:100630005254494E472424242424242424242424AA
:100640002424242424242424242424004649524DF0
:10065000574152452044454C4554454424242424C4
:1006600024242424242424242424242400464952F9
:100670004D57415245204E4F542044454C4554451A
:1006800044242424242424242424242424004649E7
:10069000524D574152455F46494C455F464F525F68
:1006A000574153504D4F54452323232323230026E2
:1006B00005470568059905CA05E9050A062B064C94
:1006C000066D068E06002124272A2D3033002225B0
:1006D000282B2E313400202326292C2F3205050506
:1006E00005030303030101010404030606060606CD
:1006F00006060601040501050103020202020202C8
:1007000001020205050404030404010304070707AA
:10071000010208101020408004081020400202044A
:1007200008102040800102802040042001010204C2
:100730000810200140804080010208040880041055
:100740000402010000080900000000000000000091
:100750000000000000000000000000000000000099
:100760000000000000000000000000000000000089
:100770000000000000007C3C3E5E2B3D3F2F5B5D97
:100780003B2C2A225C00FA03910CDE0FC612D23CED
:100790001941C448984DDE4DE44DE54D11241FBE6E
:1007A000CFEFD1E2DEBFCDBF14E0A0E0B2E0E8E3DE
:1007B000FEEA00E00BBF02C007900D92AC33B10718
:1007C000D9F71EE0ACE3B4E001C01D92A837B10731
:1007D000E1F717E0CCE9D7E004C02297FE010E94C0
:1007E0004152C638D107C9F70E94F5070C941A5731
:1007F0000C9400001092A9061092AA061092AD0661
:100800001092AF0687E394E090933D0480933C04FC
:1008100008952F923F924F925F926F927F928F92A4
:100820009F92AF92BF92CF92DF92EF92FF920F937F
:100830001F93DF93CF93CDB7DEB7C957D0400FB624
:10084000F894DEBF0FBECDBF5C016B011982382E5C
:100850002B2C0E94DB1C2FE931E0A20EB31E92E08C
:10086000D5019C93E1E6FEEFAE0EBF1E42E0E42E02
:10087000F12CEC0EFD1E88E7D7011D928A95E9F751
:100880008EE78A831B8281E08E83F501E45CFD4F55
:10089000118210822DE931E0A20EB31ED5019C9386
:1008A00023E63EEFA20EB31ED60118969C91860158
:1008B00000591F4F923008F066C0F8018081825FB6
:1008C0008C8380E18D83913049F41F8218861986CC
:1008D0001A861B861C868FEF8D871FC09923F1F423
:1008E000D60114968C9114978F8315968C91159739
:1008F000888716968C911697898717968C911797EB
:100900008A878C918B8711968C9111978C87129680
:100910008C9112978D8713968C918E878FEF8F878E
:100920008EEF888B198A1A8AECE3F2E0AE0EBF1EB6
:10093000D5011D921C92E4ECFDEFAE0EBF1E32E01D
:10094000E32EF12CEC0EFD1E832D922DB601A70196
:1009500021E10E94711320E730E0C20ED31ED601C0
:100960000D911C91E0E9FFEFCE0EDF1E0F5E1F4FD1
:10097000832D922DB7010E944217E00EF11ED70180
:100980008C9312E15BC0D8018C918C5E8C8381E1E9
:100990008D83D60114968C9114978F8315968C9124
:1009A0001597888716968C911697898717968C913C
:1009B00017978A878C918B8711968C9111978C87CA
:1009C00012968C9112978D8713968C918E878FEF4C
:1009D0008F878EEF888B22E730E0C20ED31ED601C0
:1009E0008D91898B8D916D018A8B1B8A8C918C8B5B
:1009F00022E030E0C20ED31ED6018D916D018D8BA9
:100A00008C9129E83FEFC20ED31E8E8B1F8A188E61
:100A100011821082C501B601A70127E10E9471135E
:100A2000D8010D911C91095E1F4FC501B7010E94AD
:100A30004217E00EF11EF701808318E122E0E22E5A
:100A4000F12CEC0EFD1E832D922DB601A7019E0107
:100A50002F5F3F4F012F0E948A1300E090E7492E3D
:100A6000512C4C0C5D1C612E772487E0882E82E08F
:100A7000982E8A0C9B1C11C0D4018C91813021F4DA
:100A800081E197E00E94D812F701E00FF11D80810B
:100A9000F40160810E941C0B0F5F402F50E0298100
:100AA000D2018D919C91820F911D860D971D481743
:100AB000590710F3832D922D0E94E41CEFE9F1E019
:100AC000AE0EBF1ED5018C93EAE8F0E0CE0EDF1E1D
:100AD00020EC30E0A20EB31ED5019D91F60191935A
:100AE0009D9191939D9191939D915D019193DF01D2
:100AF000F50190819C93C758DF4F0FB6F894DEBF85
:100B00000FBECDBFCF91DF911F910F91FF90EF905E
:100B1000DF90CF90BF90AF909F908F907F906F901D
:100B20005F904F903F902F900895CF93DF93EC010B
:100B3000CA5FDD4F83E089936883C750D240662344
:100B400021F481E197E00E94C712C85FDD4F19824E
:100B50001882E496199219921882CE53D2401BA2A1
:100B6000CB5FDE4F18822297199282E88883A9967C
:100B70001882229680E28883C754D040199297E069
:100B8000999380ED89931992199288EC8883C75BB9
:100B9000DF4F1882289784E08883C25BDE4F9993E9
:100BA00083E08993899391E098836B9719921882D7
:100BB000C95CD04082E08883C653DF4F9883C95C0C
:100BC000D040899389938883CF59D140CE010E9428
:100BD000AF1CCE010E94DB1CDF91CF910895EF92F4
:100BE000FF920F931F930CE314E0C8010E9452265A
:100BF000C8010E94E52581E1E82E87E0F82E095F13
:100C00001F4F4091270450912804C701B8010E944A
:100C1000F811045010404091270450912804485F77
:100C20005F4FC701B8010E94F811E0912704F091CD
:100C30002804108A1F910F91FF90EF9008958CE384
:100C400094E00E94AD3C68EB7BE080E090E00E9485
:100C50005E088CE394E060912D040E944C27809103
:100C6000D905882329F480E197E060E072E004C0B0
:100C700080E197E06FE072E00E9481118CE394E0E4
:100C80006BE274E00E9407248091D905882329F43F
:100C900080E197E06CE272E004C080E197E069E3F4
:100CA00072E00E9481118CE394E060E00E940327CF
:100CB0008091D905882329F480E197E064E572E00A
:100CC00004C080E197E065E672E00E9481110E9415
:100CD000EF05609127047091280481E197E00E945C
:100CE0003A1360912704709128048CE394E00E94E9
:100CF00019228091D905882329F480E197E063E8DF
:100D000072E004C080E197E066E972E00E94811120
:100D10008CE394E00E9466258091D905882329F40C
:100D200080E197E06AEB72E004C080E197E06CEC50
:100D300072E00E94811108950F931F93CF93DF9368
:100D4000EC0160E074E08B010F5F1F4F81E197E0E1
:100D50000E946D138993B80184E00031180799F758
:100D6000DF91CF911F910F9108950F931F9381E110
:100D700097E067EE72E00E94101300E117E0C801EF
:100D80000E94AD118091290490912A040E949C0632
:100D9000C80160EF72E00E945711609129047091C0
:100DA0002A04C8010E9481110E941F061F910F9101
:100DB00008950F931F93CF93DF93EC0160E074E0ED
:100DC0008B010F5F1F4F81E197E049910E946413EF
:100DD000B80184E00031180799F7809129049091B7
:100DE0002A040E949C06DF91CF911F910F910895D4
:100DF000EF92FF920F931F937C0109EC16E0C8015C
:100E00000E94DB0FC801B7010E940A0D68EE73E073
:100E100080E090E00E945E0890E1E92E97E0F92ED4
:100E2000C70160E371E00E944710C8010E948B0F68
:100E3000BC01C7010E9481111F910F91FF90EF909B
:100E400008951F93CF93DF938CE394E00E94CD1716
:100E5000882309F4B7C080E197E062E073E00E9464
:100E600081118CE394E00E940D3B8091DA05882388
:100E700029F0A2C08CE394E00E940D3B80914106D2
:100E8000882309F48FC08CE394E00E94FA2788231A
:100E900009F088C08CE394E00E94CD17882371F399
:100EA000E9CFF0E0EE0FFF1FEE5AFB4F0190F0810B
:100EB000E02D1485E059FF4F8081918161E070E061
:100EC0000E944552EC01E0915F04F0E0EE0FFF1F3D
:100ED000EE5AFB4F6081718120E030E0AB01405958
:100EE0005F4F09C0FE01E20FF31FDB011C968C91DE
:100EF00080832F5F3F4FDA01ED91FC916F5F7F4F51
:100F0000CF0101972817390768F3EC0FFD1F3197C0
:100F10001082103219F01132F9F40FC080E197E01D
:100F20006DE171E00E94471080E197E0BE010E94F0
:100F30008111CE010E94F8061DC080E197E060E0BB
:100F400071E00E94471080E197E0BE010E9481118C
:100F5000CE010E94D9060EC080E197E06BE173E0FC
:100F60000E945711612F772767FD709580E197E008
:100F70000E942B11E0915F04F0E0EE0FFF1FEE5A8C
:100F8000FB4F808191810E940E5380915F04E82F76
:100F9000F0E0EE0FFF1FEE5AFB4F118210828150DE
:100FA00080935F0480914106882361F4E0915F049F
:100FB000EE2309F076CF06C080E197E06AEE70E09C
:100FC0000E944710DF91CF911F91089580E197E033
:100FD00061E373E00E9481110E94210768E873E1D8
:100FE00080E090E00E945E0808950E94A6080E949A
:100FF000B5060E94E607FDCF1F920F920FB60F9223
:1010000011248F939F93AF93BF938091EC0B90919A
:10101000ED0BA091EE0BB091EF0B0196A11DB11D50
:101020008093EC0B9093ED0BA093EE0BB093EF0B32
:10103000BF91AF919F918F910F900FBE0F901F9016
:1010400018951F920F920FB60F9211248F939F93B2
:10105000AF93BF938091F00B9091F10BA091F20BA5
:10106000B091F30B0196A11DB11D8093F00B9093ED
:10107000F10BA093F20BB093F30BBF91AF919F9143
:101080008F910F900FBE0F901F9018956091EC0BF1
:101090007091ED0B8091EE0B9091EF0B27E0660FB6
:1010A000771F881F991F2A95D1F723E730E040E08A
:1010B00050E00E94EE51CA01B9010895AF92BF926B
:1010C000CF92DF92EF92FF920F931F935B016C011F
:1010D0006091EC0B7091ED0B8091EE0B9091EF0B0A
:1010E00047E0660F771F881F991F4A95D1F723E7BE
:1010F00030E040E050E00E94EE5179018A016091B9
:10110000EC0B7091ED0B8091EE0B9091EF0B37E0B3
:10111000660F771F881F991F3A95D1F723E730E0B4
:1011200040E050E00E94EE512E193F09400B510B58
:101130002A153B054C055D0510F31F910F91FF909B
:10114000EF90DF90CF90BF90AF900895789484B7E0
:10115000877F84BF1092EC0B1092ED0B1092EE0B78
:101160001092EF0B84B5826084BD84B5816084BD2C
:1011700085B5826085BD85B5816085BDEEE6F0E010
:10118000808181608083E1E8F0E0808182608083FB
:10119000808181608083E0E8F0E0808181608083ED
:1011A000E1EBF0E0808184608083E1E9F0E0808120
:1011B00084608083E0EBF0E0808181608083E0E9FF
:1011C000F0E0808181608083E4E6F0E080818E7FC2
:1011D0008083ECE7F0E080818F778083808180647A
:1011E0008083EAE7F0E08081846080838081826090
:1011F00080838081806880831092C1001092C90032
:1012000008959091C006982B9093C00680FF32C03D
:10121000809164008E7F8093640080917C008F7742
:1012200080937C0080917C00806480937C0080911E
:101230007A00846080937A0080917A008260809343
:101240007A0080917A00806880937A0080916400AF
:101250008F7780936400809164008B7F809364001B
:10126000809164008D7F80936400809165008E7F03
:101270008093650008951F920F920FB60F920BB6E0
:101280000F9211242F933F934F935F936F937F930C
:101290008F939F93AF93BF93EF93FF93F89481E065
:1012A00080932E04E0E6F0E0808180688083808176
:1012B0008F7B808383E060E00E9490097894FF91A7
:1012C000EF91BF91AF919F918F917F916F915F91BE
:1012D0004F913F912F910F900BBE0F900FBE0F902B
:1012E0001F901895282F30E0C901805F984FFC01AE
:1012F00094912352394FF9018491882381F0E82F8A
:10130000F0E0EB53F94FE491F0E0662329F480819B
:1013100090958923808308958081892B8083089507
:10132000482F50E0CA018D5B984FFC012491CA01FF
:10133000805F984FFC0194914352594FFA013491C8
:101340003323C1F1222331F1233021F48091800035
:101350008F7705C0243031F4809180008F7D809399
:10136000800018C0213019F484B58F7704C0223072
:1013700021F484B58F7D84BD0DC0263021F4809189
:10138000B0008F7705C0273029F48091B0008F7DA1
:101390008093B000E32FF0E0E353F94FE491F0E0E5
:1013A000662329F480819095892380830895808124
:1013B000892B80830895482F50E0CA018D5B984F98
:1013C000FC012491CA01805F984FFC019491435223
:1013D000594FFA013491332319F420E030E035C03D
:1013E000222331F1233021F4809180008F7705C0D2
:1013F000243031F4809180008F7D8093800018C06C
:10140000213019F484B58F7704C0223021F484B5DB
:101410008F7D84BD0DC0263021F48091B0008F7780
:1014200005C0273029F48091B0008F7D8093B000F3
:10143000E32FF0E0EB52F94FE491F0E0808120E0FF
:1014400030E0892311F021E030E0C90108958823BC
:1014500089F48091C1069091C20680509E4F2091E0
:10146000C3063091C406821B930B60E072E00E94B9
:10147000DB5108958091C5069091C60680589F4F14
:101480002091C7063091C806821B930B60E870E07C
:101490000E94DB5108958823D1F44091C3065091F6
:1014A000C4068091C1069091C2068417950751F138
:1014B000FA01EC58F34F2081CA01019660E072E016
:1014C0000E94DB519093C4068093C30619C04091DB
:1014D000C7065091C8068091C5069091C60684172C
:1014E000950781F0FA01EC50F44F2081CA01019672
:1014F00060E870E00E94DB519093C8068093C706B5
:1015000030E002C02FEF3FEFC9010895882349F46E
:101510001092C4061092C3061092C2061092C10621
:1015200008951092C8061092C7061092C60610922F
:10153000C50608951F920F920FB60F920BB60F9229
:1015400011242F933F934F935F936F937F938F93C8
:101550009F93AF93BF93EF93FF934091C600E091A9
:10156000C106F091C206CF01019660E072E00E94D0
:10157000DB519C018091C3069091C406281739075E
:1015800039F0EC58F34F40833093C2062093C106E4
:10159000FF91EF91BF91AF919F918F917F916F914B
:1015A0005F914F913F912F910F900BBE0F900FBE07
:1015B0000F901F9018951F920F920FB60F920BB6B7
:1015C0000F9211242F933F934F935F936F937F93C9
:1015D0008F939F93AF93BF93EF93FF934091CE0070
:1015E000E091C506F091C606CF01019660E870E073
:1015F0000E94DB519C018091C7069091C806281774
:10160000390739F0EC50F44F40833093C6062093ED
:10161000C506FF91EF91BF91AF919F918F917F91FF
:101620006F915F914F913F912F910F900BBE0F9053
:101630000FBE0F901F901895982F662339F4809154
:10164000C00085FFFCCF9093C60008958091C8002C
:1016500085FFFCCF9093CE000895FC0110C0319619
:10166000662339F48091C00085FFFCCF9093C600BB
:1016700006C08091C80085FFFCCF9093CE0090817A
:10168000992369F708952F923F924F925F926F923C
:101690007F928F929F92AF92BF92CF92DF92EF9202
:1016A000FF920F931F93DF93CF93CDB7DEB7A19730
:1016B0000FB6F894DEBF0FBECDBF6B017C012901D0
:1016C0003A0109A3611571058105910591F4002383
:1016D00041F48091C00085FFFCCF80E38093C60079
:1016E0005BC08091C80085FFFCCF80E38093CE0073
:1016F00053C08824992454011E010894211C311CD4
:101700008101080D191DC701B601A30192010E94B4
:10171000EE51F80160830894811C911CA11CB11C3E
:10172000C701B601A30192010E94EE51C901DA017D
:101730006C017D01C114D104E104F10409F79101A8
:10174000280D391DBE016F5F7F4FD501C401019780
:10175000A109B109AC01481959091BC0FA01E20FEE
:10176000F31FE081EA3010F4E05D01C0E95CF9A10B
:10177000FF2339F48091C00085FFFCCFE093C600C1
:1017800006C08091C80085FFFCCFE093CE002150B9
:1017900030406217730711F7A1960FB6F894DEBFB9
:1017A0000FBECDBFCF91DF911F910F91FF90EF90B2
:1017B000DF90CF90BF90AF909F908F907F906F9071
:1017C0005F904F903F902F900895EF92FF920F936C
:1017D0001F937B018C014423C1F588E00E9401091D
:1017E000C801B70122E030E040E050E00E94105212
:1017F00026573D4E414F5F4FCA01B901A8019701DD
:101800000E941052C901DA010197A109B109292FDB
:101810003A2F4B2F552747FD5A950196A11DB11D13
:101820002093C50081508093C4008091C1008061E5
:101830008093C1008091C10088608093C100809135
:10184000C10080688093C10037C080E10E94010917
:10185000C801B70122E030E040E050E00E941052A1
:1018600026573D4E414F5F4FCA01B901A80197016C
:101870000E941052C901DA010197A109B109292F6B
:101880003A2F4B2F552747FD5A950196A11DB11DA3
:101890002093CD0081508093CC008091C90080615D
:1018A0008093C9008091C90088608093C9008091AD
:1018B000C90080688093C9001F910F91FF90EF903D
:1018C0000895FC01138A148A158A168A178A108EC5
:1018D000118E128E138E148E158E168E178E10A2E8
:1018E00011A212A280E090E0A0E0B0E083A394A354
:1018F000A5A3B6A30895262F862F6AE00E94CF5194
:10190000492F30E0C901841B91096AE070E00E9410
:10191000DB51E4E0660F771FEA95E1F7842F862B11
:1019200008950895DF92EF92FF920F931F938C0119
:10193000D62EA8E5EA2EA7E0FA2EC70168E670E0E9
:101940000E94B13CC7016D2D0E94D33C0D0D111DAD
:10195000C701F80160810E94D33CC7010E94FA3C94
:101960001F910F91FF90EF90DF9008958091D8061E
:101970008C7F8093D80689EC96E06FE00E94920CF1
:1019800008950F931F93CF93DF93EC0188E597E0C1
:1019900068E670E00E94B13C88E597E060E070E0A6
:1019A0000E94F73CCE01688D0E947B0C8883CE019B
:1019B0006F890E947B0C8983CE016E890E947B0C0B
:1019C0008A838D898B83CE01698D0E947B0C8C83E9
:1019D000CE016C890E947B0C8D83CE016B890E94A5
:1019E0007B0C8E8300E010E0FE01E00FF11F88E524
:1019F00097E060810E94D33C0F5F1F4F07301105B5
:101A000099F788E597E00E94FA3CDF91CF911F910A
:101A10000F910895DC01FB012181205380818053C7
:101A20003AE0839FC0011124280F53962C935397BB
:101A30002481205383818053839FC0011124280F68
:101A400054962C9354972781205386818053839FEB
:101A5000C0011124280F59962C93599722852053A1
:101A600081858053839FC0011124280F55962C93A4
:101A700055972585205384858053839FC001112469
:101A8000280F56962C93569720892053878580538C
:101A9000839FC0011124280F57962C9357972389B1
:101AA000205382898053839FC0011124280F5896A8
:101AB0002C935897CD010E94C10C0895CF92DF92CC
:101AC000EF92FF921F93CF93DF937C01162F88E54F
:101AD00097E068E670E00E94B13C88E597E060E03E
:101AE00070E00E94F73C88E597E00E94FA3C88E5A8
:101AF00097E068E670E042E150E00E941B3DC0E0E4
:101B0000D0E0C12EDD241AE009C188E597E00E94EB
:101B1000BB3C882309F402C188E597E00E94C13CE0
:101B2000282FF701EC0FFD1F8083C630D10509F483
:101B300082C0C730D105B8F4C230D10509F44EC017
:101B4000C330D10538F4209769F1C130D10509F0CF
:101B5000E4C036C0C430D10509F451C0C530D10548
:101B600008F05BC049C0CA30D10509F49BC0CB3036
:101B7000D10558F4C830D10509F478C090E02F7031
:101B8000C930D10508F081C064C0CC30D10509F45A
:101B9000A7C0CC30D10508F494C0CD30D10509F0F0
:101BA000BCC0ADC090E054E0959587955A95E1F79B
:101BB000819FC00111242F70280FF701208FADC025
:101BC00090E044E0959587954A95E1F7819FC001A3
:101BD00011242F70280FF701278B9FC090E034E06D
:101BE000959587953A95E1F7819FC00111242F7053
:101BF000280FF701268B91C0F701858B8EC090E0EE
:101C0000B4E095958795BA95E1F7819FC0011124BD
:101C10002F70280FF701218F80C090E0A4E09595E8
:101C20008795AA95E1F7819FC00111242F70280F95
:101C3000F701248B72C090E0F4E095958795FA95B2
:101C4000E1F7819FC00111242F70280FF701238B2A
:101C500064C0E4E095958795EA95E1F78770819FE8
:101C6000C0011124280FF701228F57C090E074E0C3
:101C7000959587957A95E1F78770819FC00111242A
:101C80002F70280FF701238F48C064E09595879542
:101C90006A95E1F78370819FC0011124280FF70135
:101CA000248F3BC090E054E0959587955A95E1F7D5
:101CB0008370819FC00111242F70280FF701258F99
:101CC0002CC090E044E0959587954A95E1F78770A0
:101CD000819FC00111242F70280FF701268F1DC08E
:101CE00090E034E0959587953A95E1F78370819F70
:101CF000C00111242F70280FF701278F0EC090E02C
:101D0000B4E095958795BA95E1F78370819FC001FE
:101D100011242F70280FF70120A32196CC16DD0681
:101D200008F0F3CEDF91CF911F91FF90EF90DF90FD
:101D3000CF900895CF93DF93EC018D89843009F41F
:101D40007DC0853048F4823059F1833008F05EC0A0
:101D5000813009F0D3C00AC0863009F49FC08630B4
:101D600008F484C0873009F0C9C0B0C08DB79EB7F1
:101D700042970FB6F8949EBF0FBE8DBFEDB7FEB76A
:101D80003196A896ADB7BEB71296DC93CE93119755
:101D9000A89788E993E0938382838BEB93E017C045
:101DA000ADB7BEB752970FB6F894BEBF0FBEADBF6A
:101DB000EDB7FEB73196A8961296DC93CE931197A5
:101DC000A89788E993E0938382838FEB93E09583D0
:101DD00084838B89868317828C8980871186898D7D
:101DE000828713868E89848715868F8986871786D2
:101DF000888D808B118A0E942D548DB79EB7429694
:101E00000FB6F8949EBF0FBE8DBF7EC0ADB7BEB7F4
:101E100052970FB6F894BEBF0FBEADBFEDB7FEB779
:101E20003196A8961296DC93CE931197A89788E9DD
:101E300093E09383828383EC93E0C9CFADB7BEB7C1
:101E400052970FB6F894BEBF0FBEADBFEDB7FEB749
:101E50003196A8961296DC93CE931197A89788E9AD
:101E600093E09383828387EC93E0B1CFADB7BEB7A5
:101E700052970FB6F894BEBF0FBEADBFEDB7FEB719
:101E80003196A8961296DC93CE931197A89788E97D
:101E900093E0938382838BEC93E099CFADB7BEB789
:101EA00052970FB6F894BEBF0FBEADBFEDB7FEB7E9
:101EB0003196A8961296DC93CE931197A89788E94D
:101EC00093E0938382838FEC93E081CFADB7BEB76D
:101ED00052970FB6F894BEBF0FBEADBFEDB7FEB7B9
:101EE0003196A8961296DC93CE931197A89788E91D
:101EF00093E09383828383ED93E069CFCE0188964C
:101F000067ED73E00E941E549E01285D3F4FC9019A
:101F1000DF91CF9108950F931F938C0166E00E948B
:101F20005E0DC8010E949A0E1F910F9108950F93A4
:101F30001F93CF93DF93EC01042F6FA380E361E045
:101F40000E9472091FA1113019F0103199F40DC0CF
:101F500080E361E00E949009013019F482E08A8BED
:101F600009C0002339F41A8B05C080E360E00E94A9
:101F700090091A8ADF91CF911F910F910895CF9305
:101F8000DF93EC0161E040E00E94970F80915807D9
:101F9000882321F488E597E00E941E3DCE010E942F
:101FA000B60CCE010E94610CCE016DE00E945E0D68
:101FB000DF91CF9108950E94BF0F089510921007EE
:101FC00008958F929F92AF92BF92CF92DF92EF923D
:101FD000FF920F931F934C015A016B01E22E60E0B8
:101FE00072EC81E090E0F40140810E94E50B87E112
:101FF00061E00E9490098BE060E00E949009FF245C
:1020000000E010E0C601B501A8019701F4010081CC
:102010000E94430B61E070E080E090E00E945E0867
:102020008BE061E00E9490091F910F91FF90EF906B
:10203000DF90CF90BF90AF909F908F900895FF92C8
:102040000F931F938C01F62E60E072EC81E090E01C
:10205000F80140810E94E50B87E161E00E94900950
:102060008BE060E00E9490098F2DF80160810E9452
:102070001C0B61E070E080E090E00E945E088BE065
:1020800061E00E9490091F910F91FF9008950F93B6
:102090001F93CF93DF93EC01162F072F60E072ECB4
:1020A00081E090E048810E94E50B212F302FC9018B
:1020B0008C01F8010F5F1F4F6491662321F0CE0160
:1020C0000E941F10F6CF60E070E080E090E0DF91AA
:1020D000CF911F910F910895FF920F931F938C0141
:1020E000F62E60E072EC81E090E0F80140810E9401
:1020F000E50B87E161E00E9490098BE060E00E94BF
:1021000090098F2DF80160810E941C0B61E070E046
:1021100080E090E00E945E088BE061E00E94900900
:102120001F910F91FF9008950F931F938C0160E012
:1021300072EC81E090E0F80140810E94E50B87E1BC
:1021400061E00E9490098BE060E00E949009C80164
:102150006DE00E946C10C8016AE00E946C1061E0A2
:1021600070E080E090E00E945E088BE061E00E94F9
:1021700090091F910F910895EF92FF920F931F9373
:10218000CF93DF93EC017A018B0160E072EC81E088
:1021900090E048810E94E50B87E161E00E94900990
:1021A0008BE060E00E94900917FF0CC0CE016DE249
:1021B0000E946C1010950095F094E094E11CF11CC5
:1021C000011D111DCE01B801A7012AE00E94E10FF7
:1021D00061E070E080E090E00E945E088BE061E0EA
:1021E0000E949009DF91CF911F910F91FF90EF9086
:1021F0000895CF92DF92EF92FF920F931F936C019D
:102200007B0160E072EC81E090E0F60140810E9489
:10221000E50B87E161E00E9490098BE060E00E949D
:1022200090090027F7FC0095102FC601B801A701FF
:102230000E94BC1061E070E080E090E00E945E08C7
:102240008BE061E00E9490091F910F91FF90EF9049
:10225000DF90CF900895EF92FF920F931F938C0120
:102260007B0160E072EC81E090E0F80140810E9427
:10227000E50B87E161E00E9490098BE060E00E943D
:102280009009C801B7010E94F910C8010E9494107A
:1022900061E070E080E090E00E945E088BE061E029
:1022A0000E9490091F910F91FF90EF900895EF9277
:1022B000FF920F931F938C017B0160E072EC81E031
:1022C00090E0F80140810E94E50B87E161E00E9407
:1022D00090098BE060E00E949009C701F8016081DD
:1022E0000E942D0B61E070E080E090E00E945E08AB
:1022F0008BE061E00E9490091F910F91FF90EF9099
:102300000895EF92FF920F931F938C017B0160E081
:1023100072EC81E090E0F80140810E94E50B87E1DA
:1023200061E00E9490098BE060E00E949009C80182
:10233000B7010E945711C8010E94941061E070E03B
:1023400080E090E00E945E088BE061E00E949009CE
:102350001F910F91FF90EF900895FC0160E072ECE7
:1023600081E090E040810E94E50B87E161E00E94FE
:10237000720987E161E00E9490098BE061E00E94B0
:1023800072098BE060E00E94900908950F931F93FB
:10239000CF93DF938B01BA01DA0140E050E0C22F06
:1023A000D0E019C0F801E40FF51F8081982F9295B5
:1023B0009F708F709A3010F4905D01C0995C9C936F
:1023C0008A3010F4805D01C0895C11968C9311975E
:1023D0004F5F5F4F12964C175D0724F3CC0FDD1F44
:1023E000C60FD71F1882DF91CF911F910F910895CB
:1023F00028E00E94C6110895FB019081892F805327
:102400008A3038F4292F332727FD30952053304068
:102410000DC0892F8154863018F020E030E007C0CD
:10242000292F332727FD309527533040319660817F
:10243000862F80538A3030F4772767FD709560537C
:1024400070400CC0862F8154863018F060E070E038
:1024500005C0772767FD70956753704094E0220FA1
:10246000331F9A95E1F7862F820F08956833A1F103
:10247000693380F4643341F1653338F4623301F138
:10248000633300F56133D1F417C0663309F1673364
:1024900008F51CC0633441F1643438F4613401F14F
:1024A000623400F5693351F419C0653409F16534BB
:1024B000E8F0663419F41EC081E01DC080E01BC046
:1024C00082E019C083E017C084E015C085E013C026
:1024D00086E011C087E00FC088E00DC089E00BC026
:1024E0008AE009C08BE007C08CE005C08DE003C026
:1024F0008EE001C08FE04733A1F1483380F44333CD
:1025000041F1443338F44133F1F0423300F54033C4
:10251000E1F51BC0453309F1463308F51CC04234D0
:1025200041F1433438F4493301F14933E0F04134A7
:1025300061F51DC0443409F14434E8F04534F9F044
:102540004634F9F0089591E01DC090E01BC092E080
:1025500019C093E017C094E015C095E013C096E051
:1025600011C097E00FC098E00DC099E00BC09AE051
:1025700009C09BE007C09CE005C09DE003C09EE051
:1025800001C09FE08295807F890F0895089587E1BB
:1025900061E00E9472098BE061E00E94720987E1AC
:1025A00061E00E9490098BE061E00E94900908952B
:1025B00087E161E00E94720984E261E00E94720991
:1025C00085E261E00E94720987E161E00E94900962
:1025D00084E261E00E94900985E261E00E94900936
:1025E00008950F931F93162F042F87E161E00E9437
:1025F000720984E261E00E94720985E261E00E9452
:10260000720987E161E00E94900984E2612F0E94D3
:10261000900985E2602F0E9490091F910F91089503
:102620000F931F93CF93DF93162F072FCBE6D0E0A6
:10263000CE0160E00E946C562196C337D105C1F7E8
:10264000812F902F9C018901CBE6D0E0CE01F801CB
:1026500060810E946C56F8018081882331F00F5F01
:102660001F4F2196C337D10589F7DF91CF911F9175
:102670000F9108950F931F93CF93DF93162F072F7A
:10268000C3E9D0E0CE0160E00E946C562196C33AC7
:10269000D105C1F7812F902F9C018901C3E9D0E0BA
:1026A000CE01F80160810E946C56F8018081882378
:1026B00031F00F5F1F4F2196C33AD10589F7DF91A3
:1026C000CF911F910F91089584E06030780724F036
:1026D000CB01642F0E946C560895CB010E94645672
:1026E0000895CF93DF93DA01FB01A20FB11D20E023
:1026F00030E0EB01C059DF4F04C083858D932F5F1D
:102700003F4F31968881998128173907B0F3DF91BF
:10271000CF9108953F924F925F926F927F928F92E6
:102720009F92AF92BF92CF92DF92EF92FF920F9360
:102730001F93DF93CF9300D000D0CDB7DEB76B01EE
:102740004A017901AA24A39410E020E730E0C20EE8
:10275000D31E41E3442E3DE7732E23E3322E9EE544
:10276000692E8DE5582E30C1D401A60FB71F8C916C
:10277000813111F090E04AC04C92F70180818F5F67
:1027800080838C917C926F5F7F4F9401260F371F5F
:102790003C832B8361507040FB013296FA83E983BE
:1027A00020C0EB81FC81B180418349815A814F5F18
:1027B0005F4F3296FC83EB8329813A812E5F3F4F36
:1027C0003A832983F70180819801280F311DC901BF
:1027D000F60120813181820F931F48175907A8F411
:1027E0008B2DEB81FC8140818083F70180819801F2
:1027F000280F311DC901F60120813181820F931FFD
:1028000029813A812817390760F291E08C91833150
:1028100009F04DC0992309F04AC03C92F70180812C
:102820008F5F80838C917C926F5F7F4F9401260F26
:10283000371F3C832B8361507040FB013296FA8333
:10284000E98320C0EB81FC81B180418349815A81B9
:102850004F5F5F4F3296FC83EB8329813A812E5F75
:102860003F4F3A832983F70180819801280F311D5A
:10287000C901F60120813181820F931F4817590742
:10288000A8F48B2DEB81FC8140818083F70180814E
:102890009801280F311DC901F60120813181820F75
:1028A000931F29813A812817390760F291E08C91B2
:1028B0008E3709F04DC0992309F04AC06C92F70198
:1028C00080818F5F80838C917C926F5F7F4F9401BA
:1028D000260F371F3C832B8361507040FB013296DB
:1028E000FA83E98320C0EB81FC81B1804183498177
:1028F0005A814F5F5F4F3296FC83EB8329813A8187
:102900002E5F3F4F3A832983F70180819801280F7A
:10291000311DC901F60120813181820F931F4817B3
:102920005907A8F48B2DEB81FC8140818083F7014E
:1029300080819801280F311DC901F6012081318164
:10294000820F931F29813A812817390760F291E09D
:102950002C912D37C1F59923B1F55C92F701808157
:102960008F5F80838C912C936F5F7F4FF401E60F14
:10297000F71F6F5F7F4F17C0B1804183AB014F5F7F
:102980005F4F32966E5F7F4FD7018C919801280F71
:10299000311DC901D6012D913C91820F931F48171B
:1029A000590788F48B2D40818083D7018C91980141
:1029B000280F311DC901D6012D913C91820F931F23
:1029C00068177907C8F2A3946A2D70E0F701808137
:1029D0009801280F311DC901D6012D913C91820F1C
:1029E000931F6817790708F4BFCE0F900F900F90D0
:1029F0000F90CF91DF911F910F91FF90EF90DF909B
:102A0000CF90BF90AF909F908F907F906F905F908E
:102A10004F903F900895DF92EF92FF920F931F9394
:102A2000CF93DF93890180E090E0A3E1DA2EFEE707
:102A3000EF2EE1E1FE2E37C02F5F3F4F9C919D3777
:102A400031F01196319624173507B0F32DC02417B5
:102A5000350750F5E9012196E60FF71F8181833391
:102A600061F0843318F4813369F405C08D3549F081
:102A70008E3541F404C0FC9205C0DC9203C0EC9298
:102A800001C09C9341505040F901E00FF11FE60F47
:102A9000F71F02C0818180832F5F3F4F3196CE01A7
:102AA00024173507B8F39C012417350738F4F901CA
:102AB000E00FF11FDB01AE0FBF1FC0CFDF91CF9141
:102AC0001F910F91FF90EF90DF900895EF92FF928A
:102AD0000F931F93CF93DF938C01EB017A01FC01DD
:102AE000E45CFD4F2D5F3F4F318320832350304006
:102AF000A0E0B0E0AF010BC0FE01E60FF71F808140
:102B0000A80FB11D6F5F7F4FFA0171836083FA01D7
:102B1000608171816E157F0578F3AF3FB10521F0BB
:102B2000AF3F11F081E008C005561E4FC20FD31F02
:102B30008C81F801808380E0DF91CF911F910F910C
:102B4000FF90EF9008950F931F93CF93DF93EC01C5
:102B5000C85FDD4F18811351C152D1408881C75ED3
:102B6000D0408150682F70E027E230E0629FA001E2
:102B7000639F500D729F500D1124DE01A40FB51FED
:102B8000C65FDD4F899194968C9394978991959621
:102B90008C9395978881CC50D24096968C9396973B
:102BA0006F5F7F4F629FF001639FF00D729FF00D8A
:102BB000112461507040EC0FFD1FC35FDD4F899100
:102BC0008083899198968C939897899199968C9304
:102BD000999789919A968C939A9789919B968C93C1
:102BE0009B9789919C968C939C978881C351D240E6
:102BF0009D968C93FA01BE96EC0FFD1F80E090E04D
:102C00001192019684319105D9F7CA5FDD4F888111
:102C1000C650D240813009F041C087E290E0689F01
:102C2000D001699FB00D789FB00D1124AC0FBD1F6E
:102C3000A65BBF4FCC5EDD4F8881C451D2408C93E0
:102C4000AA54B040AE01485F5D4FFA018081918186
:102C50000D9708F472C0FE01E45CFD4F11821082F2
:102C60009F01BA01AD010FC0FA01EA0FFB1FAC0FC3
:102C7000BD1FAB5EBD4F8C9186A7F901808191810C
:102C8000019691838083F901A081B181FB0180814C
:102C900091810C97A817B90738F34FC08250843040
:102CA00008F04BC0FE01E45CFD4F11821082AF01C1
:102CB000012F10E087E290E0689F9001699F300D3E
:102CC000789F300D11242C0F3D1F0FC0F901EA0F22
:102CD000FB1FAC0FBD1FAC5EBD4F8C9186A7FA01E8
:102CE00080819181019691838083FA01A081B181D5
:102CF000A017B10758F387E290E0689FD001699F61
:102D0000B00D789FB00D1124AC0FBD1FAE5BBF4F4F
:102D1000FE01E00FF11FEB5EFD4F81918D938191DC
:102D20008D9381918D9381918D9381918D938191DB
:102D30008D9381918D9380818C93DF91CF911F91A1
:102D40000F910895CF92DF92EF92FF920F931F930E
:102D5000CF93DF93EC016B017A01B901FC01E45CD4
:102D6000FD4F0D5F1F4F1183008303501040A0E003
:102D7000B0E09F010BC0F601E40FF51F8081A80FA2
:102D8000B11D4F5F5F4FF90151834083F9014081CD
:102D900051814617570778F3AF3FB10519F0AF3FA0
:102DA00009F064C0F601E00FF11F9581D701159677
:102DB0008C911597981709F059C0968116968C91A9
:102DC000981709F053C09B01201B310B29303105A6
:102DD00029F48781882309F44CC048C0978199233E
:102DE00051F0CA5FDD4F8881C650D2408350833096
:102DF000E8F59034D9F5FE01E45CFD4F11821082B4
:102E0000BF012950304012C0FE01E40FF51FE65FFC
:102E1000FD4FD601A40FB51FA00FB11F18968C91BE
:102E200080834F5F5F4FFB0151834083DB014D91F6
:102E30005C914217530740F3C85FDD4F3983288305
:102E4000C850D240F70185818E3491F48681843454
:102E500079F42230310530F0FE01E951FF4F8081D5
:102E60008F5F8083CE010E94A31502C081E001C064
:102E700080E0DF91CF911F910F91FF90EF90DF9055
:102E8000CF900895DB0112968C911297482F50E055
:102E90004E5F5F4F90E023E030E007C0FD01E20F9E
:102EA000F31F8081980F2F5F3F4F42175307B4F7EE
:102EB000892F80950895AF92BF92CF92DF92EF92C3
:102EC000FF920F931F93CF93DF938B01FA01790148
:102ED0008281682F70E06C5F7F4F918180E0680F86
:102EE000791F8081D8018C93EA0120E030E041E035
:102EF00050E0ADE7AA2EF3E3BF2EEDE5CE2E9EE522
:102F0000D92E91E38981813131F0833121F08D37E0
:102F100011F08E3731F5D801A40FB51FFD01E20F76
:102F2000F31FA0822F5F3F4F8981833171F084317D
:102F300018F48131E1F405C08D3759F08E37B9F4BA
:102F40000CC0A20FB31F9C9312C0A20FB31FBC9260
:102F50000EC0A20FB31FCC920AC0A20FB31FDC9207
:102F600006C0F801E40FF51FE20FF31F80834F5FE7
:102F70005F4F2196461757072CF2260F371FF70190
:102F800031832083DF91CF911F910F91FF90EF90BC
:102F9000DF90CF90BF90AF900895FC01E95FFD4FA7
:102FA00080810E94270A0895CF93DF93EC01FB01F3
:102FB00001900020E9F73197E61BE695DC01A45C5F
:102FC000BD4F83E090E011969C938E9390E04E2F3E
:102FD00050E00CC0FE01E20FF31FE15CFD4F808169
:102FE000980F2F5F3F4F11963C932E932D913C915C
:102FF00011972417350770F3892F8095C40FD51FBB
:10300000C25CDD4F8883DF91CF910895AF92BF926C
:10301000CF92DF92FF920F931F93CF93DF936C01B8
:10302000FF2460E070E08C01045C1D4FD8016D93BB
:103030007C93EB012C96CC0FDD1FCC0DDD1D23C046
:103040005F010894A11CB11CA881B981AA57BF4F88
:103050003D96EE0FFF1FEC0DFD1D0190F081E02D60
:10306000EA57FF4F2D913D914D915C918081918167
:10307000A281B38182179307A407B50754F4F39490
:10308000F801B182A082D801ED91FC91E430F10504
:10309000B8F2B4E0FB1621F4F62E65E070E002C051
:1030A000F62EF3946F5F7F4F6530710508F4BECF45
:1030B0000F2D10E0045F1F4F000F111F0C0D1D1D81
:1030C000F801808191810E940E53D8011D921C92BB
:1030D0008F2DDF91CF911F910F91FF90DF90CF90B7
:1030E000BF90AF900895AF92BF92CF92DF92FF92C0
:1030F0000F931F93CF93DF936C01FF2460E070E088
:103100008C01045C1D4FD8016D937C93EB012C96D0
:10311000CC0FDD1FCC0DDD1D23C05F010894A11C69
:10312000B11CA881B981AA57BF4F3D96EE0FFF1F72
:10313000EC0DFD1D0190F081E02DEA57FF4F2D9120
:103140003D914D915C9180819181A281B38128173D
:1031500039074A075B0754F4F394F801B182A0825F
:10316000D801ED91FC91E430F105B8F2B4E0FB1622
:1031700021F4F62E65E070E002C0F62EF3946F5F46
:103180007F4F6530710508F4BECF0F2D10E0045F4E
:103190001F4F000F111F0C0D1D1DF8018081918123
:1031A0000E940E53D8011D921C928F2DDF91CF915A
:1031B0001F910F91FF90DF90CF90BF90AF90089537
:1031C0006F927F929F92AF92BF92CF92DF92EF92D7
:1031D000FF920F931F93CF93DF935C016B0128E065
:1031E00032E0A20EB31ED5018D919C91C8EFDDEFA8
:1031F000AC0EBD1E0C9708F4F6C2F50183A18F5FDB
:1032000083A3E45CFD4F11821082DF010FC0F9013E
:103210003C96EE0FFF1FEA0DFB1D80819181892BEB
:1032200059F02F5F3F4F11963C932E932D913C9177
:1032300011972530310558F3822FD50193962C91A3
:103240002630F8F0CCE9D1E0AC0EBD1EF50190813E
:1032500044E65EEFA40EB51E913029F0913038F0AF
:10326000923079F408C0C5010E9473180AC0C501E4
:103270000E94061806C02150D50193962C9382E037
:10328000B5C2682E772481E090E06FE870E00E947C
:103290004552EC01ACE0EA2EF12CE60CF71CEE0CEA
:1032A000FF1CEA0CFB1CF70191838083009709F453
:1032B0009AC22EE332E0A20EB31ED5019C90E2EC3E
:1032C000FDEFAE0EBF1EF1E09F1609F47EC09F1603
:1032D00048F022E0921609F41CC133E0931609F07D
:1032E00084C2B7C1CB57DF4F1882D7010D911C9113
:1032F0000E9446080A571F4FE801688379838A8332
:103300009B83D701ED91FC911197EE57FF4FE6019A
:1033100088818083ED91FC911197ED57FF4F898152
:103320008083ED91FC911197EC57FF4F8A81808348
:10333000ED91FC911197E758FF4F8B818083ED91C0
:10334000FC91E758FF4F8081E957F040815082306F
:1033500018F481E0808701C01086F501E85FFD4F19
:1033600080819181049720F484E090E091838083B0
:10337000D3011C96AA0FBB1FAA0DBB1DED91FC919A
:103380001197E059FF4F28E032E0A20EB31EE5018D
:1033900088819981049791838083F60120E030E051
:1033A00006C0C20FD31F83818C872F5F3F4FCD9103
:1033B000DC9111973196C059DF4F88819981C057B0
:1033C000D0402817390768F310C2CB57DF4F9882D7
:1033D000F701008111810E9446080A571F4FD8014A
:1033E0006D937D938D939C931397E701E881F98109
:1033F000E258FF4FD6018C918083E881F981E15832
:10340000FF4F11968C9111978083E881F981E058E4
:10341000FF4F12968C9112978083E881F981EF57C4
:10342000FF4F13968C9113978083E881F981E658BA
:10343000FF4F14968C9114978083E881F981E558A9
:10344000FF4F15968C9115978083E881F981E45898
:10345000FF4F16968C9116978083E881F981E35887
:10346000FF4F17968C9117978083E881F981EC576D
:10347000FF4F18968C9118978083E881F981E7585F
:10348000FF4F19968C918083E881F981E758FF4FAF
:103490008081E957F0408150823010F4908601C05D
:1034A0001086F501E85FFD4F808191810A9720F435
:1034B0008AE090E091838083D3011C96AA0FBB1F02
:1034C000AA0DBB1DED91FC911197E059FF4FC8E08B
:1034D000D2E0AC0EBD1EE501888199810A979183E7
:1034E0008083F60120E030E006C0C20FD31F818543
:1034F0008C872F5F3F4FCD91DC9111973196C0594A
:10350000DF4F88819981C057D0402817390768F369
:103510006CC10E944608CA57DF4F688379838A834B
:103520009B83D701ED91FC911197E258FF4FE60183
:1035300088818083ED91FC911197E158FF4F89813B
:103540008083ED91FC911197E058FF4F8A81808331
:10355000ED91FC911197EF57FF4F8B818083ED9197
:10356000FC911197E658FF4F8C818083ED91FC917F
:103570001197E558FF4F8D818083ED91FC91119754
:10358000E458FF4F8E818083ED91FC911197E358B1
:10359000FF4F8F818083ED91FC911197EE57FF4F84
:1035A00088858083ED91FC911197ED57FF4F8985B8
:1035B0008083ED91FC911197E758FF4F8A858083B6
:1035C000ED91FC91E758FF4F8081E957F0408F70F3
:1035D000823019F481E0808701C01086F501E85F30
:1035E000FD4F808191810B9720F48BE090E09183D7
:1035F0008083D3011C96AA0FBB1FAA0DBB1DED91A2
:10360000FC911197E059FF4F28E032E0A20EB31E63
:10361000E501888199810B9791838083E60120E001
:1036200030E006C0E20FF31F8A8584872F5F3F4F8B
:10363000ED91FC9111972196E059FF4F8081918186
:10364000E057F0402817390768F3EC57FF4F108216
:10365000CCC00E944608CA57DF4F688379838A83AB
:103660009B83D701ED91FC911197E258FF4FE60142
:1036700088818083ED91FC911197E158FF4F8981FA
:103680008083ED91FC911197E058FF4F8A818083F0
:10369000ED91FC911197EF57FF4F8B818083ED9156
:1036A000FC911197E658FF4F8C818083ED91FC913E
:1036B0001197E558FF4F8D818083ED91FC91119713
:1036C000E458FF4F8E818083ED91FC911197E35870
:1036D000FF4F8F818083ED91FC911197EE57FF4F43
:1036E00088858083ED91FC911197ED57FF4F898577
:1036F0008083ED91FC91119782E08087ED91FC91A0
:103700001197EE58FF4F8A858083ED91FC911197B8
:10371000ED58FF4F8B858083ED91FC911197EC580C
:10372000FF4F8C858083ED91FC911197EB58FF4FF3
:103730008D858083ED91FC911197EA58FF4F8E851E
:103740008083ED91FC911197E958FF4F8F8580831D
:10375000ED91FC911197E758FF4F88898083ED9197
:10376000FC91E758FF4F8081E957F0408F7082301D
:1037700011F481E08087F501E85FFD4F8081918140
:10378000419720F481E190E091838083D3011C96DE
:10379000AA0FBB1FAA0DBB1DED91FC911197E0591B
:1037A000FF4F28E032E0A20EB31EE5018881998127
:1037B000419791838083F60120E030E006C0C20F7C
:1037C000D31F80898C872F5F3F4FCD91DC9111975C
:1037D0003196C059DF4F88819981C057D040281752
:1037E000390768F302C081E001C080E0DF91CF912A
:1037F0001F910F91FF90EF90DF90CF90BF90AF900F
:103800009F907F906F900895AF92BF92CF92DF927A
:10381000EF92FF920F931F93DF93CF93CDB7DEB755
:10382000C857D0400FB6F894DEBF0FBECDBF8C0195
:103830006B015A0179010E94BC408639910514F44C
:103840008FEF73C0B7016D5F7F4FF801E45CFD4FF0
:103850007183608340E050E0DF010BC0F601E20FAE
:10386000F31F8081480F511D2F5F3F4F11963C93EE
:103870002E932D913C9111972A153B0578F34F3FDC
:10388000510519F04F3F09F062C0F801E85FFD4FA4
:103890001182108297012C5F3F4FD601AE0DBF1DE4
:1038A0007E010894E11CF11CA501415050405F01CC
:1038B0000EC013968C911397F70181937F01F50148
:1038C000808191810196918380832F5F3F4F119674
:1038D0002417350770F36C0D7D1DFB018081813845
:1038E00071F0823818F48038D1F405C0803961F065
:1038F0008139A9F40DC0025C1D4F81E00CC0025C4F
:103900001D4FF801108209C0025C1D4F82E003C008
:10391000025C1D4F83E0F80180830E531240C80102
:10392000BE016F5F7F4F0E94E018C858DF4F0FB68F
:10393000F894DEBF0FBECDBFCF91DF911F910F91E5
:10394000FF90EF90DF90CF90BF90AF900895095F08
:103950001D4FF80180810E94860A81E0E6CF0F9317
:103960001F93CF93DF938C01FC01E45CFD4F118228
:103970001082EF0116C03C96EE0FFF1FE00FF11F03
:10398000808191810E940E53888199810C96FC015F
:10399000EE0FFF1FE00FF11F118210820B9799832A
:1039A0008883E881F981E530F10528F3DF91CF9133
:1039B0001F910F910895815C9D4FFC018EE1DF0105
:1039C0001D928A95E9F708952F923F924F925F9248
:1039D0006F927F928F929F92AF92BF92CF92DF921F
:1039E000EF92FF920F931F93DF93CF93CDB7DEB784
:1039F000CD53D1400FB6F894DEBF0FBECDBF6C01E2
:103A00000E944608A82F2FE931E0C20ED31E82E0A3
:103A1000F601808321E63EEFC20ED31EF601EB597C
:103A2000FD4F8081882341F4AA24BB24C35DDE4F6F
:103A30001882CD52D1400CC08EE789831082B1E04C
:103A4000AB2EB12C31E0C35DDE4F3883CD52D14077
:103A50004A2F592FCB01DA013C014D010BE010E058
:103A6000FF245524C6018B599D4FC45CDE4F9983BA
:103A70008883CC53D140F7E02F2EF2E03F2E2C0C60
:103A80003D1C44244394B8C0D1018C910E94270A64
:103A90001816190614F0EE248DC0F10180810E94E1
:103AA0004B0AE1E0F0E0EC0FFD1FEA0DFB1D808307
:103AB0000894A11CB11C0E944608AC01CB01DA019C
:103AC0003C014D01FE01EA0DFB1DE081EE37D1F412
:103AD0008CE291E08A199B098E36910540F4C45C12
:103AE000DE4FA881B981CC53D1404C920BC0C35D4D
:103AF000DE4FB881CD52D140BF5FC35DDE4FB8838A
:103B0000CD52D140F1E0AF16B10441F4AA24BB2458
:103B1000EE3761F4E1E0AE2EB12C08C02CE2A21623
:103B200021E0B20618F0EE24E39401C0EE2486E012
:103B3000589E900111242C5F3F4FC9018F0D911D9C
:103B4000A816B90679F491E0F91679F0FE01EA0DAC
:103B5000FB1D80818A58823050F00D5F1F4FFF247B
:103B6000F39403C0A1E0FA1611F40F5F1F4FFE019A
:103B7000EA0DFB1DE081ED3729F4FF20B1F40F5F62
:103B80001F4F13C0EA3839F4A216B30671F40A5F66
:103B90001F4F53940AC0EE3741F4B1E0FB1629F4ED
:103BA0000150104079EFF72EF00EA016B10611F477
:103BB000EE24E3940E94460866157705880599056A
:103BC00038F40E944608AC01CB01DA013C014D01FA
:103BD0000E9446086619770988099909695B7B4044
:103BE0008040904038F0F601E95FFD4F80810E94EF
:103BF000860A0CC0EE2051F4C45CDE4FA881B98166
:103C0000CC53D1408C91882309F43ECF89818E37E3
:103C100021F461E0E62EF12C13C051E0E52EF12CE9
:103C20009E012F5F3F4F03C00894E11CF11CF90176
:103C3000EE0DFF1D80818E3719F0EA14FB04A0F30E
:103C4000882499242E010894411C511CF601E45C3F
:103C5000FD4FC25DDE4FF983E883CE52D14096011D
:103C60002F593D4FC05DDE4F39832883C053D1406B
:103C7000C6018E599D4FCE5CDE4F99838883C25317
:103C8000D140D601AD59BD4FCC5CDE4FB983A8837E
:103C9000C453D140F601E05AFD4FCA5CDE4FF983B0
:103CA000E883C653D1409601215A3D4FC85CDE4F90
:103CB00039832883C853D1404FE9242E41E0342E64
:103CC0002C0C3D1C66246394C60182569E4FC65C34
:103CD000DE4F99838883CA53D140C0C00894E11C49
:103CE000F11C80818E3721F03196EA14FB04B0F389
:103CF000870108191909F201E80DF91D772420E060
:103D000030E007C080818D3709F473942F5F3F4FF7
:103D1000319620173107B0F3C25DDE4FA881B9811B
:103D2000CE52D1402D933C93772041F09701201B38
:103D3000310BC601B201A8010E940B15D701A01BCF
:103D4000B10BE4E0F0E0EC0FFD1FEA0FFB1FE08198
:103D5000EB3841F1EC3820F4EA3809F070C005C0C6
:103D6000E059E23008F06BC00BC0080D191D0719AF
:103D70001109C601B201A8019D010E9466155FC02C
:103D8000080D191D07191109C601B201A8019D01ED
:103D90000E94041CC65CDE4FE881F981CA53D14001
:103DA00080834DC0E6E0F0E0EC0FFD1FEA0FFB1F43
:103DB0008081C05DDE4FE881F981C053D1408083AE
:103DC000E7E0F0E0EC0FFD1FEA0FFB1F8081CE5C07
:103DD000DE4FE881F981C253D1408083E8E0F0E012
:103DE000EC0FFD1FEA0FFB1F8081CC5CDE4FE881EA
:103DF000F981C453D1408083EAE0F0E0EC0FFD1F6D
:103E0000EA0FFB1F8081CA5CDE4FE881F981C6534F
:103E1000D140808329E030E02C0F3D1FA20FB31F5B
:103E20008C91C85CDE4FA881B981C853D1408C9376
:103E3000882319F4F101108202C0D1016C92C35D94
:103E4000DE4FB881CD52D140B150C35DDE4FB88353
:103E5000CD52D14047010894E11CF11CC35DDE4FF7
:103E6000E881CD52D140EE2321F0F201EE0DFF1D8D
:103E700038CF2FE931E0C20ED31ED6018C91C35C3E
:103E8000DE4F0FB6F894DEBF0FBECDBFCF91DF91EE
:103E90001F910F91FF90EF90DF90CF90BF90AF9068
:103EA0009F908F907F906F905F904F903F902F905A
:103EB00008952F923F924F925F926F927F928F92CE
:103EC0009F92AF92BF92CF92DF92EF92FF920F93A9
:103ED0001F93DF93CF93CDB7DEB7CF53D1400FB64B
:103EE000F894DEBF0FBECDBF4C01CE5CDE4F7983B0
:103EF0006883C253D140FC01EB59FD4F8081882378
:103F000041F422243324C35DDE4F1882CD52D140C8
:103F10000CC010828EE7898321E0222E312C21E013
:103F2000C35DDE4F2883CD52D140CE5CDE4FE881A9
:103F3000F981C253D14080818E3E39F495E0A92E9B
:103F4000B12CC12CD12C1DE606C082E3A82EB12CC9
:103F5000C12CD12C1EE1CE5CDE4FE881F981C25329
:103F6000D1408581853491F48681843409F04EC036
:103F700026E032E0820E931EF40180812AEF3DEFAD
:103F8000820E931E813009F041C0E3C1843481F474
:103F9000CE5CDE4FE881F981C253D14086818E34F8
:103FA000A9F508EEA02E03E0B02EC12CD12C2EC016
:103FB0008E3461F5CE5CDE4FE881F981C253D14089
:103FC0008681843419F526E032E0820E931EF401D6
:103FD00080812AEF3DEF820E931E833039F4B0E4E6
:103FE000AB2EBCE9BB2EC12CD12C10C0845082302A
:103FF00038F4A0EBAA2EA6E3BA2EC12CD12C06C011
:10400000F0E2AF2EFEE4BF2EC12CD12C0E94460858
:10401000AC01CB01DA012C013D010E944608C25DD2
:10402000DE4F688379838A839B83CE52D140A4017B
:104030004B595D4FC65CDE4F59834883CA53D1400C
:10404000C401895F9D4FC45CDE4F99838883CC5344
:10405000D140E12FF0E0C25CDE4FF983E883CE531C
:10406000D14076C0C45CDE4FE881F981CC53D140A9
:1040700080810E94270A892B09F441C0C45CDE4F6D
:10408000E881F981CC53D14080810E944B0AE1E064
:10409000F0E0EC0FFD1FE20DF31D80830894211C5E
:1040A000311CFE01E20DF31D80818E3709F58CE293
:1040B00091E082199309C25CDE4F28813981CE5389
:1040C000D1408217930748F421E0C65CDE4FE881B7
:1040D000F981CA53D14020830BC0C35DDE4F3881C4
:1040E000CD52D1403F5FC35DDE4F3883CD52D140CA
:1040F0000E944608AC01CB01DA012C013D010E946F
:1041000046080E9446080E9446087B018C010E94D6
:104110004608E418F50806091709AE14BF04C006DE
:10412000D10600F1C25DDE4F288139814A815B8171
:10413000CE52D140621B730B840B950B61547C49AA
:104140008040904078F44CE2241641E0340650F46C
:10415000C65CDE4FE881F981CA53D1408081882353
:1041600009F480CF89818E3739F0E1E0EE2EF12C11
:104170009E012F5F3F4F2BC071E0E72EF12CCC2426
:10418000DD2462E0B62E55243E010894611C711CAA
:104190009401245C3D4FCC5CDE4F39832883C453AB
:1041A000D140A40143565E4FCA5CDE4F5983488319
:1041B000C653D140C40182569E4FC85CDE4F9983DE
:1041C0008883C853D1409DC00894E11CF11CF901BB
:1041D000EE0DFF1D80818E3791F2E214F304A0F3FF
:1041E000CECF0894E11CF11C80818E3721F03196EE
:1041F000E214F304B0F387010C191D09F301EC0D6F
:10420000FD1DAA2420E030E007C080818D3709F42D
:10421000A3942F5F3F4F319620173107B0F3CC5C4A
:10422000DE4FE881F981C453D14031832083AA2035
:1042300041F09701201B310BC401B301A8010E947A
:104240000B15D701A01BB10BE4E0F0E0EC0FFD1F54
:10425000EA0FFB1FE081E83861F0E93810F4E0581C
:1042600005C0EA38F1F0EA38D0F1E059E230B8F5AB
:1042700024C00C0D1D1D0A191109C401B301CE5C27
:10428000DE4F48815981C253D14098018D010E946F
:10429000A216B82ECA5CDE4FE881F981C653D14020
:1042A0001DC00C0D1D1D0A191109C401B301A8017F
:1042B0009D010E946615B82E12C00C0D1D1D0A1915
:1042C0001109C401B301A8019D010E94041CB82E6C
:1042D000C85CDE4FE881F981C853D140B082BB2071
:1042E00009F45394C35DDE4FF881CD52D140F150B3
:1042F000C35DDE4FF883CD52D14067010894E11CC5
:10430000F11CC35DDE4F2881CD52D140222321F024
:10431000F301EE0DFF1D68CF5110BB248B2DC15C46
:10432000DE4F0FB6F894DEBF0FBECDBFCF91DF9149
:104330001F910F91FF90EF90DF90CF90BF90AF90C3
:104340009F908F907F906F905F904F903F902F90B5
:10435000089558EBA52E5BE0B52EC12CD12C56CE7E
:104360008F929F92AF92BF92CF92DF92EF92FF9285
:104370000F931F93DF93CF93CDB7DEB7C656D040D0
:104380000FB6F894DEBF0FBECDBF8C011A82198222
:104390005FE3A52E52E0B52EA80EB91EBE016D5FDB
:1043A0007F4FA5019E012F5F3F4F0E945B17095F62
:1043B0001D4FF801808107501240813021F481E1C6
:1043C00097E00E94D812EE24FF2443E0842E912C23
:1043D0008C0E9D1E37E0C32E32E0D32EC00ED11EB0
:1043E0000BC0F401EE0DFF1D8081F60160810E947B
:1043F0001C0B0894E11CF11C89819A81E816F906CE
:1044000084F3C801B5010E94591FCA59DF4F0FB686
:10441000F894DEBF0FBECDBFCF91DF911F910F91FA
:10442000FF90EF90DF90CF90BF90AF909F908F90D4
:1044300008954F925F926F927F928F929F92AF9268
:10444000BF92CF92DF92FF920F931F93DF93CF9390
:10445000CDB7DEB76E970FB6F894DEBF0FBECDBFF7
:104460008C012B018EE789831A8288E08C8382E598
:104470008D838EE48E8389E48F83F801E45CFD4FA5
:104480001182108203561E4F82E0D8018C930D5981
:104490001140DF01AE01485F5F4F08C0FA01E80F2D
:1044A000F91F2083019611969C938E938D919C9178
:1044B0001197F201E80FF91F2081222379F78C5F11
:1044C0008B83DE01149690E043E050E0E82FF0E0AB
:1044D000339604C08D91980F4F5F5F4F4E175F0763
:1044E000C8F3045C1D4FD8014D935C930C531240EC
:1044F0009E012F5F3F4FE20FF31F909590838B81BA
:10450000882E9924E3E0AE2EB12CA80CB91CFF2410
:10451000390177E0C72E72E0D72EC00ED11E08C039
:10452000E60DF71D8081F60160810E941C0BF3945B
:10453000EF2DF0E0AE16BF069CF7C8010E94DB1C11
:104540000C5B1D4F8EE4D8018D938D0189E48C9313
:1045500005541240B801615C7D4FC8010E94591F8B
:10456000982F8823F9F4F801E45CFD4F1182108242
:10457000AF01B401645070400FC0F801E20FF31FA7
:10458000E151FF4FD201A20FB31F8C9180832F5FA7
:104590003F4FFA0131832083DA012D913C91261798
:1045A000370758F3892F6E960FB6F894DEBF0FBE0B
:1045B000CDBFCF91DF911F910F91FF90DF90CF90F2
:1045C000BF90AF909F908F907F906F905F904F9033
:1045D0000895AF92BF92CF92DF92EF92FF920F9326
:1045E0001F93CF93DF937C01162F072F5A010E9450
:1045F000DB1CA12FB02FFD0101900020E9F73197BE
:10460000DE2ED11AD694212F302FC9018C01CE2C49
:10461000E7010EC081E197E0F801608141810E94CD
:104620003612C15CDD4F88830E5F1F4FCE53D240E0
:104630009E012C192D1570F338E1D316D9F4F7012A
:10464000E45CFD4F11821082EF010EC0F701E20F12
:10465000F31FEA5BFD4FD501A20FB31F8C9180833E
:104660002F5F3F4F398328832881398120313105DD
:1046700068F364C080E1D816D9F4F701E45CFD4F1B
:1046800011821082EF010EC0F701E20FF31FEA5B07
:10469000FD4FD501A20FB31F8C9180832F5F3F4F39
:1046A00039832883288139812830310568F346C051
:1046B0009BE0D916D9F4F701E45CFD4F118210821A
:1046C000EF010EC0F701E20FF31FEA5BFD4FD501CA
:1046D000A20FB31F8C9180832F5F3F4F39832883B4
:1046E000288139812330310568F328C0EAE0DE16DD
:1046F000D9F4F701E45CFD4F11821082EF010EC086
:10470000F701E20FF31FEA5BFD4FD501A20FB31FC4
:104710008C9180832F5F3F4F398328832881398193
:104720002230310568F30AC0ED0CF11C2DE332E0B4
:10473000E20EF31EF5018081F7018083DF91CF91B6
:104740001F910F91FF90EF90DF90CF90BF90AF90AF
:104750000895CF92DF92EF92FF920F931F93DF9312
:10476000CF93CDB7DEB7E2970FB6F894DEBF0FBE9A
:10477000CDBF7C01D62EC72E8DE991E0E80EF91E43
:1047800082E0F701808383E69EEFE80EF91EE2E007
:10479000F5E0659174918E010F5F1F4FC8010E9473
:1047A000EF53C701B8014D2D5C2D0E94E922C701CE
:1047B000B8010E94D417C701B8010E94B021482F48
:1047C0008823A9F48D2D9C2D9C01F901D701A35EAE
:1047D000BE4F20E030E080818C938081882339F0C7
:1047E0002F5F3F4F3196119620313105A1F7842F6D
:1047F000E2960FB6F894DEBF0FBECDBFCF91DF912A
:104800001F910F91FF90EF90DF90CF900895CF927E
:10481000DF92EF92FF920F931F93DF93CF93CDB769
:10482000DEB7A1970FB6F894DEBF0FBECDBF7C01F7
:104830006B0126E032E0E20EF31EF70180812AEFE1
:104840003DEFE20EF31E813041F0833031F08430D1
:1048500021F0853011F092E023C08DE991E0E80E5F
:10486000F91E82E0F701808323E63EEFE20EF31E9D
:10487000E8EDF4E0659174918E010F5F1F4FC80160
:104880000E94EF53C701B801A6010E94E922C701A7
:10489000B8010E94D417C701B8010E94B021982F17
:1048A000E6E0F2E0EE0EFF1EF70180812AEF3DEF19
:1048B000E20EF31E823011F5EDE9F1E0EE0EFF1E7F
:1048C000F701808323E63EEFE20EF31EEAEDF4E00B
:1048D000659174918E010F5F1F4FC8010E94EF53C5
:1048E000C701B801A6010E94E922C701B8010E94D0
:1048F000D417C701B8010E94B021982F992309F05D
:1049000052C0E6E0F2E0EE0EFF1EF70180812AEFD2
:104910003DEFE20EF31E813031F0833021F0843020
:1049200011F08530D1F4F701E45CFD4F1182108263
:10493000AF010DC0F701E20FF31FD601A20FB31FA5
:104940008C9187872F5F3F4FFA0131832083FA01D3
:10495000208131812230310568F326E032E0E20E19
:10496000F31EF70180812AEF3DEFE20EF31E823045
:10497000D1F4F701E45CFD4F11821082AF010DC04C
:10498000F701E20FF31FD601A20FB31F8C918787A7
:104990002F5F3F4FFA0131832083FA01208131815B
:1049A0002830310568F3892FA1960FB6F894DEBF41
:1049B0000FBECDBFCF91DF911F910F91FF90EF9070
:1049C000DF90CF900895DF92EF92FF920F931F93A5
:1049D000CF93DF93D82EF92E162F072F0E94DB1CC2
:1049E000A12FB02FFD0101900020E9F73197EE2EA5
:1049F000E11AE694212F302FC9018C012D2D3F2D76
:104A0000C901EC010EC081E197E0F80160814181AC
:104A10000E943612C15CDD4F88830E5F1F4FCE535C
:104A2000D2409E012D192E1570F3DF91CF911F9169
:104A30000F91FF90EF90DF900895EF92FF920F9308
:104A40001F93DF93CF93CDB7DEB764970FB6F8947B
:104A5000DEBF0FBECDBF7C012DE931E0E20EF31EBB
:104A600082E0F701808323E63EEFE20EF31EE6E0EC
:104A7000F5E0659174918E010F5F1F4FC8010E9490
:104A8000EF53C701B8010E94E324C701B8010E9497
:104A9000B021982F882361F4EAE0F2E0EE0EFF1EC9
:104AA000F701808123E23FEFE20EF31EF7018083DE
:104AB000892F64960FB6F894DEBF0FBECDBFCF919D
:104AC000DF911F910F91FF90EF900895EF92FF9269
:104AD0000F931F93DF93CF93CDB7DEB764970FB6D5
:104AE000F894DEBF0FBECDBF8C0103561E4F82E08F
:104AF000F80180830D591140EAEFF4E0659174915B
:104B00007E010894E11CF11CC7010E94EF53C8010B
:104B1000B7010E94E324C801B7010E94B021649646
:104B20000FB6F894DEBF0FBECDBFCF91DF911F91BE
:104B30000F91FF90EF900895EF92FF920F931F93C4
:104B4000DF93CF93CDB7DEB764970FB6F894DEBF8F
:104B50000FBECDBF7C012DE931E0E20EF31E82E0F5
:104B6000F701808323E63EEFE20EF31EECEEF4E065
:104B7000659174918E010F5F1F4FC8010E94EF5322
:104B8000C701B8010E94E324C701B8010E94B02107
:104B9000982F882361F4EAE0F2E0EE0EFF1EF701A1
:104BA000808124EE3EEFE20EF31EF7018083892F11
:104BB00064960FB6F894DEBF0FBECDBFCF91DF91E4
:104BC0001F910F91FF90EF900895EF92FF920F9336
:104BD0001F93DF93CF93CDB7DEB761970FB6F894ED
:104BE000DEBF0FBECDBF7C012DE931E0E20EF31E2A
:104BF00082E0F701808323E63EEFE20EF31EECEC49
:104C0000F4E0659174918E010F5F1F4FC8010E94FF
:104C1000EF53C701B8010E94E324C701B8010E9405
:104C2000B021982F882381F5EAE0F2E0EE0EFF1E16
:104C3000F701808126EF3DEFE20EF31EF701878337
:104C40002BE032E0E20EF31EF701808125EF3DEF0D
:104C5000E20EF31EF70180872CE032E0E20EF31E35
:104C6000F701808124EF3DEFE20EF31EF70181870B
:104C70002DE032E0E20EF31EF701808123EF3DEFDD
:104C8000E20EF31EF7018287892F61960FB6F89422
:104C9000DEBF0FBECDBFCF91DF911F910F91FF906F
:104CA000EF900895EF92FF920F931F93DF93CF93AE
:104CB000CDB7DEB761970FB6F894DEBF0FBECDBF9C
:104CC0007C012DE931E0E20EF31E82E0F7018083E2
:104CD00023E63EEFE20EF31EEAECF4E065917491F8
:104CE0008E010F5F1F4FC8010E94EF53C701B8012B
:104CF0000E94E324C701B8010E94B021982F8823A5
:104D000081F5EAE0F2E0EE0EFF1EF701808126EF6A
:104D10003DEFE20EF31EF70183832BE032E0E20E5B
:104D2000F31EF701808125EF3DEFE20EF31EF70140
:104D300084832CE032E0E20EF31EF701808124EF41
:104D40003DEFE20EF31EF70185832DE032E0E20E27
:104D5000F31EF701808123EF3DEFE20EF31EF70112
:104D60008683892F61960FB6F894DEBF0FBECDBF44
:104D7000CF91DF911F910F91FF90EF900895BF9217
:104D8000CF92DF92EF92FF920F931F93CF93DF9317
:104D90007C01162F072FB42E0E94DB1CA12FB02FF1
:104DA000FD0101900020E9F73197DE2ED11AD6944B
:104DB000212F302FC9018C01CE2CE7010EC081E1DB
:104DC00097E0F801608141810E943612C15CDD4F9D
:104DD00088830E5F1F4FCE53D2409E012C192D1594
:104DE00070F3ED0CF11C8DE392E0E80EF91EF70173
:104DF000B082DF91CF911F910F91FF90EF90DF90E4
:104E0000CF90BF900895DF92EF92FF920F931F9380
:104E1000DF93CF93CDB7DEB764970FB6F894DEBFBC
:104E20000FBECDBF7C01D62E2DE931E0E20EF31E80
:104E300082E0F701808323E63EEFE20EF31EE4E01A
:104E4000F5E0659174918E010F5F1F4FC8010E94BC
:104E5000EF53C701B8014D2D0E94BF26C701B8010D
:104E60000E94D417C701B8010E94B021882331F4F1
:104E7000EDE2F1E0EE0EFF1EF701D08264960FB670
:104E8000F894DEBF0FBECDBFCF91DF911F910F9180
:104E9000FF90EF90DF900895DF92EF92FF920F93D3
:104EA0001F93DF93CF93CDB7DEB764970FB6F89417
:104EB000DEBF0FBECDBF7C01D62E26E032E0E20E73
:104EC000F31EF70180812AEF3DEFE20EF31E8130E1
:104ED00021F0833011F0843029F58DE991E0E80E5E
:104EE000F91E82E0F701808323E63EEFE20EF31E17
:104EF000EAEEF4E0659174918E010F5F1F4FC801D7
:104F00000E94EF53C701B8014D2D0E94BF26C70173
:104F1000B8010E94D417C701B8010E94B0218823AC
:104F200049F00EC08DE991E0E80EF91E8FEFF70110
:104F3000808306C02EEE30E0E20EF31EF701D08231
:104F400064960FB6F894DEBF0FBECDBFCF91DF9150
:104F50001F910F91FF90EF90DF9008950F931F9393
:104F6000CF93DF93EC01CC5FDD4F8881C450D240FA
:104F7000813069F0813018F08230B9F526C0FE0129
:104F8000E651FE4FCE0160810E944C272BC0FE01EE
:104F9000E45CFD4F118210828F0110C0FE01E80F0A
:104FA000F91FE551FE4F85599F4F60810E946C5655
:104FB000F80180819181019691838083F80180813D
:104FC00091818830910550F310C0FE01ED5FFD4FD7
:104FD000CE0160810E940327BE016D507E4FCE013D
:104FE0000E94A923CE010E946625DF91CF911F91D7
:104FF0000F9108950F931F93CF93DF93EC018C01D2
:105000000B5F1D4FF8018081882381F10E944608C3
:105010000E944608C852DE4F288139814A815B814F
:10502000C85DD140621B730B840B950B61517742B5
:1050300080409040DCF0F8011082C452DE4F86EDD3
:1050400097E0BE010E949D482697198218826296B9
:1050500019921882C95ED140CE010E94AE27C95F65
:10506000DD4F88810E94860A81E001C080E0DF91E7
:10507000CF911F910F9108958F929F92AF92BF92FF
:10508000CF92DF92EF92FF920F931F93DF93CF9314
:10509000CDB7DEB7CC55D0400FB6F894DEBF0FBE0B
:1050A000CDBF7C01DC019396EC91F0E03B96EE0FD6
:1050B000FF1FE80FF91F0190F081E02D2CE332E093
:1050C000E20EF31ED7011D921C9229EC3FEFE20E77
:1050D000F31ED7018C912BEF3DEFE20EF31E8823D8
:1050E00009F454C1BF0162587F4F970122533E4FCC
:1050F000AF014E575F4FDB019C91D9018C919817FE
:1051000011F020E008C06F5F7F4F2F5F3F4F6417A3
:10511000750789F721E0E658FF4F42ED51E0E40EB4
:10512000F51E9081EA57F040D7018C914EE25EEF78
:10513000E40EF51E981709F01CC1E558FF4F83EDEA
:1051400091E0E80EF91E9081EB57F040D7018C9169
:105150004DE25EEFE40EF51E981709F00AC1E4581F
:10516000FF4F84ED91E0E80EF91E9081EC57F0407E
:10517000D7018C914CE25EEFE40EF51E981709F012
:10518000F8C0E358FF4F85ED91E0E80EF91E9081DD
:10519000ED57F040D7018C914BE25EEFE40EF51E27
:1051A000981709F0E6C0222309F4E3C0E08986EEEF
:1051B00091E0E80EF91ED701EC932AE13EEFE20EF2
:1051C000F31EEE2369F446ED51E0E40EF51ED7011F
:1051D0008D919C912AE23EEFE20EF31E892B21F184
:1051E00047EE51E0E40EF51ED7012C9149E15EEF48
:1051F000E40EF51E8E2F90E0821B910981309105FF
:1052000099F0EE2309F07EC02F3F09F07BC00CC05F
:10521000FB01EC0DFD1DAC0DBD1D51968C918083E5
:105220000894C11CD11C05C0CC24DD24BE016F5FD5
:105230007F4FD7019396EC91F0E03B96EE0FFF1F66
:10524000EE0DFF1DA081B181A059BF4F8D919C91A2
:105250001197A057B0400597C816D906C8F280EF3D
:1052600097E0A6010E9468458C01E9EEF1E0EE0EA0
:10527000FF1ED7011C920E944608EFEEFFEFEE0ED4
:10528000FF1ED7016D937D938D939C931397E8E256
:10529000FEEFEE0EFF1E86EDA82E81E0B82EAE0CBE
:1052A000BF1CB8EE8B2EB1E09B2E8E0C9F1C0C15F4
:1052B0001D05B9F025E032E0E20EF31ED7011C9285
:1052C000EBEFFDEFEE0EFF1EB70164527E4F86ED51
:1052D00097E00E949D48D5011D921C92F401108216
:1052E00052C0D5018D919C91119701968D939C93FD
:1052F000E6EEF1E0EE0EFF1ED7018D918C93F401E6
:10530000108244C0E21709F441C0A8EE8A2EA1E041
:105310009A2E8E0C9F1C029721F481E0D4018C936D
:1053200035C0E5E0F2E0EE0EFF1ED7011C92E7ED7E
:10533000FFEFEE0EFF1E86ED97E0B7010E949D483D
:105340002AEF3FEFE20EF31ED7011D921C92EAE214
:10535000FEEFEE0EFF1ED4011C92C7010E94AE2785
:10536000E7E0F2E0EE0EFF1ED7018C910E94860A64
:105370000DC0E5E0F2E0EE0EFF1ED7011C92EBEF50
:10538000FDEFEE0EFF1EC7010E94AE27C45ADF4F8D
:105390000FB6F894DEBF0FBECDBFCF91DF911F9146
:1053A0000F91FF90EF90DF90CF90BF90AF909F90C4
:1053B0008F9008958F929F92AF92BF92CF92DF927B
:1053C000EF92FF920F931F93DF93CF93CDB7DEB78A
:1053D000C25FD1400FB6F894DEBF0FBECDBF7C01D7
:1053E000DC019396EC91F0E03B96EE0FFF1FE80F87
:1053F000F91F80809180ECE0F0E08E0E9F1E54013A
:10540000EBE6CE2ED12CD50114961C9181E197E0CC
:10541000B6010E946D13181711F090E00BC00894AC
:10542000A11CB11C0894C11CD11CB3E7CB16D1043C
:1054300051F791E0E4E0F2E0EE0EFF1E83E0D701C9
:105440008C93ECEFFDEFEE0EFF1E992309F4BCC226
:1054500029EE31E0E20EF31ED7018C91E7E1FEEF79
:10546000EE0EFF1E882309F0AFC20E94BC40825C92
:1054700091400CF4B3C225E032E0E20EF31E81E06D
:10548000D7018C930E944608E3EDFFEFEE0EFF1E5E
:10549000D7016D937D938D939C931397E8E2FEEF74
:1054A000EE0EFF1EA701445C5D4FDA011D921C92B7
:1054B0009A016AE216C0D701AE0FBF1FE730F105AF
:1054C00020F0A056BE4F6C9306C0A056BE4FE80D0C
:1054D000F91D84858C93F9018081918101969183D6
:1054E0008083D901ED91FC91E032F10520F3EE0DBE
:1054F000FF1DE056FE4F1082FA0111821082A701B3
:10550000445C5D4F0CC0AF53BE4FF401E20FF31F7C
:1055100083898C932F5F3F4FDA012D933C93FA01DF
:1055200020813181D701A20FB31F2C30310558F3F0
:10553000AF53BE4F1C92D7019396EC91F0E03B968F
:10554000EE0FFF1FEE0DFF1D0190F081E02DE059E1
:10555000FF4F808191818097C9F5E6E0F2E0EE0E81
:10556000FF1ED7018C91EAEFFDEFEE0EFF1E81309A
:1055700069F5D4015F961C91C7010E949C25F70133
:10558000E651FE4F2EEE30E0E20EF31ED7018C9175
:105590008083EFEAF0E0EE0EFF1ED7018C91E3E688
:1055A000FEEFEE0EFF1E882321F4C701612F0E943B
:1055B0004C27C7010E94662524E032E0E20EF31E6C
:1055C000D7011C92ECEFFDEFEE0EFF1ED701939674
:1055D000EC91F0E03B96EE0FFF1FEE0DFF1D0190EA
:1055E000F081E02DE059FF4F80819181879709F08C
:1055F00059C0E6E0F2E0EE0EFF1ED7018C91EAEF13
:10560000FDEFEE0EFF1E8250823008F04BC05CE3CF
:10561000A52E52E0B52EAE0CBF1CD5011D921C92DA
:10562000650114C0B80165597F4F81E197E00E9480
:105630006D130E0D1F1D05511E4FF8018083D601FD
:105640008D919C91119701968D939C93F601008109
:1056500011810830110530F3D5011D921C9287018C
:10566000045C1D4F0EC0F401E80FF91F85599F4FD0
:10567000678D0E946C56F80180819181019691831B
:105680008083D8018D919C918830910560F3E4E08E
:10569000F2E0EE0EFF1E81E0D7018C93ECEFFDEF00
:1056A000EE0EFF1ED7019396EC91F0E03B96EE0FC5
:1056B000FF1FEE0DFF1D0190F081E02DE059FF4F1F
:1056C00080819181CF9709F072C0E6E0F2E0EE0EA2
:1056D000FF1ED7018C91EAEFFDEFEE0EFF1E845006
:1056E000823008F064C0A701445C5D4FDA011D926E
:1056F0001C92BA0110C0F701E20FF31FED50FE4FEC
:10570000D401A20FB31F5F968C9180832F5F3F4F10
:10571000FB0131832083DB012D913C912031310548
:1057200050F3FA01118210829701245C3D4F8E01E3
:105730000F5F1F4F0FC0F801EA0FFB1FA80DB91D27
:105740009F968C918083D9018D919C9111970196A0
:105750008D939C93F901A081B181A031B10558F3DB
:10576000C7010E941D25F701ED5FFD4F2DE231E0DD
:10577000E20EF31ED7018C9123ED3EEFE20EF31EF5
:105780008083C70161E00E940327C701B8010E941E
:10579000A923C7010E94662584E092E0E80EF91E65
:1057A00082E0D7018C93ECEFFDEFEE0EFF1ED701E8
:1057B0009396EC91F0E03B96EE0FFF1FEE0DFF1D70
:1057C0000190F081E02DE258FF4F81912EEC31E005
:1057D000E20EF31ED7018C930894E11CF11C819119
:1057E000D7018D9381918D9380818D93379781918E
:1057F0008D9381918D9381918D937D0180818C9387
:10580000EBE2FEEFEE0EFF1EF701E45CFD4F1182AE
:10581000108209C0A056BE4F8C91DC968C932F5FEE
:105820003F4F3183208320813181D701A20FB31FE5
:105830002730310578F3A452BE4F1C9226ED31E09B
:10584000E20EF31ED7011D921C92E0E1F0E0EE0E95
:10585000FF1ED7011D92FD011192DF011D927D01F6
:1058600011E01C93E7E1FEEFEE0EFF1E8AE098E0E8
:105870000E94304280EF97E00E94304286ED97E030
:105880000E9430428CE59AE00E948A4EF701EC5863
:10589000FD4F882319F0108320E002C0108221E020
:1058A000FE01F2963AE2CE018E509E4F3193E817F8
:1058B000F907E1F71082222309F07BC08701045227
:1058C0001E4F80EF97E066ED77E0A8012EE30E947F
:1058D0008447882381F486ED97E0B8010E949D48B3
:1058E00080EF97E066ED77E0A8012EE30E94844701
:1058F000882309F45EC0E3ECF6E0659174918E01B3
:105900000F5E1F4FC8010E94EF53F8010190002065
:10591000E9F73197E01BF10B80EF97E0B801AF0199
:105920000E9468454C01D8010D900020E9F76D01F7
:105930000894C108D108C01AD10A870100561E4F29
:10594000D8010D900020E9F71197A01BB10B80EF53
:1059500097E0B801AD010E946845F8010190002070
:10596000E9F73197E01BF10B8E179F0721F4BB2459
:105970008C149D0411F0BB24B3948E010E5C1F4F58
:10598000F80101900020E9F73197E01BF10B80EF5F
:1059900097E0B801AF010E946845F801019000202E
:1059A000E9F73197E01BF10B8E179F0711F4BB202D
:1059B000B9F0E5E0F2E0EE0EFF1ED7011C92EBEF2E
:1059C000FDEFEE0EFF1E07C0F701EB5FFD4F80817C
:1059D000882331F41082C7010E94AE2781E001C004
:1059E00080E0CE50DE4F0FB6F894DEBF0FBECDBFC5
:1059F000CF91DF911F910F91FF90EF90DF90CF90AB
:105A0000BF90AF909F908F9008954F925F926F924A
:105A10007F928F929F92AF92BF92CF92DF92EF923E
:105A2000FF920F931F93DF93CF93CDB7DEB72A97E3
:105A30000FB6F894DEBF0FBECDBF5C017B016A01DB
:105A400029010130A9F58A01E3E0CE2ED12CCC0E3C
:105A5000DD1E3E010894611C711C7BE0872E912C99
:105A60008C0E9D1EF8018081898381818A8381E16A
:105A700097E0B3010E94FC11F60181936F010E5F64
:105A80001F4FE815F90571F78B81F70184838C812D
:105A900085838D8186838E8187838F8180838885AE
:105AA0008183898582838A85838381E0818720C081
:105AB0000023F1F4FA018081898381818A8381E165
:105AC00097E08E010F5F1F4FB8010E94FC118B837E
:105AD000F6018281898383818A8381E197E0B8011D
